:020000040800F2
:100000000050002071220008B1220008B12200082F
:10001000B1220008B1220008B1220008000000004F
:10002000000000000000000000000000B1220008F5
:10003000B122000800000000B1220008B12200082F
:1000400035300008393000083D30000841300008E4
:1000500045300008493000084D3000089530000850
:10006000993000089D300008A1300008A530000834
:10007000A9300008AD300008B1300008B5300008E4
:10008000B9300008BD300008C1300008B1220008B6
:10009000B1220008B1220008B1220008C5300008D2
:1000A000C9300008CD300008D1300008D530000834
:1000B000D9300008DD300008E1300008E5300008E4
:1000C000E9300008ED300008F1300008F530000894
:1000D000F9300008FD300008013100082531000822
:1000E000293100082D3100083131000800000000DE
:1000F0000000000000000000000000000000000000
:0C01000000000000000000005FF808F1A3
:100110000EB400B598B019AB04CB1992694682228F
:1001200092008A8100900490094A0292059201226D
:100130005242CA811793074A1068199A00F00CF8C6
:10014000009A0023137018B008BC03B018470000D1
:10015000FFFFFF7F24000020F0B55F4656464D4666
:100160004446F0B4AFB002908A461E1C904600226E
:100170000492089200E0099E42461378002B09D0B1
:10018000252B07D0444601342378002B03D0252BA0
:1001900001D0F8E744464346E51A002D07D0404613
:1001A000291C524600F02CFB049A52190492002399
:1001B000E356002B00D1FEE20134A04600226B463C
:1001C000B7331A700392059201235B42069300E055
:1001D0001E1C4246127812061216934601239844BA
:1001E00000E005915B46203B582B00D930E29B0094
:1001F000C74A9B589F46C74A08928FE16A46B73262
:100200000023D356002BE4D120231370E1E7012310
:10021000039A1A430392DCE7331D36680596002ED5
:10022000D6DA724205921E1C0423039A1A430392E3
:10023000CFE72B226B46B7331A70CAE742461378D2
:10024000012290441B061B162A2B06D09B461A1C23
:10025000303A092A0DD900211AE0331D3668069676
:10026000002E04DA1E1C01235B420693B1E71E1C1C
:10027000AFE700218B005B185B00991842461278AB
:1002800012061216934601239844303A092AF1D9EE
:1002900000290691A6DA012252420692A2E78023A3
:1002A000039A1A43039294E700215B46303B8A008D
:1002B00052185200991843461B781B061B169B4682
:1002C00001229044303B092B8BD8EEE74023039A60
:1002D0001A4303927DE742460023D3566C2B06D186
:1002E000012398441023039A1A43039271E71023C1
:1002F000039A1A4303926CE71023039A1A4303925A
:1003000067E75B46432B02D0039AD20610D5002341
:100310000C930D933268029869463F310CAB00F0A4
:1003200025FB071C431C00D145E20436099606E074
:10033000321D099232686B463F331A700127002242
:100340006B46B7331A703F236B4499462DE2102356
:10035000039A1A430392039BDB0603D5321D0992CD
:1003600034680BE0039B5B0605D5321D09923368A8
:100370001B041C1402E0331D09933468002C01DBBC
:100380000121ECE064422D226B46B7331A70012143
:10039000E5E0039AD20605D5331D09933368049A24
:1003A0001A60E8E6039B5B0606D5321D09923368A6
:1003B0006A46128A1A80DEE6331D09933368049A6E
:1003C0001A60D8E61023039A1A430392039BDB06B4
:1003D00003D5321D0992346809E0039B5B0603D5FF
:1003E000321D0992348802E0331D099334680021DC
:1003F000B1E0321D099234680223039A1A43039232
:1004000078239B460221434A0892A4E0069C0022DE
:100410006B46B7331A70331D09933668B146002E08
:1004200000D1BFE15A46532A02D0039BDB0643D5D5
:100430004D460E9500230A930B93002C18DB0027E2
:1004400000250E9B5A59002A1FD0029869463F3159
:100450000AAB00F08BFA421C00D1ACE1C019A042FB
:1004600013DC0435844201D1271C0EE0071CE8E7A9
:100470000AAB0093029800210EAA002300F0DEFAD6
:10048000071C431C00D196E10E95002F00D1EEE031
:1004900000250A950B956C4667340AAB00930298C9
:1004A000211C0EAA3B1C00F0C9FA874200D082E151
:1004B000E555A1460795E0E0002C0CDB301C00213F
:1004C000221C00F0DFF9002800D1D3E0871BA742EF
:1004D00000DDCFE0CBE0301C00F018FA071C64E12F
:1004E0001023039A1A430392039BDB0603D5321DA4
:1004F0000992346809E0039B5B0603D5321D09921B
:10050000348802E0331D09933468012123E00000A0
:1005100040460008CC470008AC4A0892039BDB0623
:1005200003D5321D0992346809E0039B5B0603D5AD
:10053000321D0992348802E0331D09933468039A0E
:10054000D20707D5002C05D00223039A1A43039241
:10055000022100E0022100226B46B7331A70069B8D
:10056000002B03DB8023039A9A430392002C02D1D1
:10057000069B002B50D0012909D001290CD3022958
:100580003AD0069A0792924B9946192775E0092CA2
:100590001CD86D46673529E067226A4491460123DD
:1005A0005B4299440723234030334A461370E408E2
:1005B000002CF4D1039AD20743D5302B41D001232C
:1005C0005B42994430234A4613703AE06D466735E2
:1005D000013D201C0A2100F0EDFE30312970201C65
:1005E0000A2100F0B9FD041C0928F1D8013DA946F3
:1005F000231C30332B7024E067236B44994601227F
:10060000524291440F232340089A9B5C4A46137040
:100610002409002C15D0F2E7002903D067236B448E
:1006200099460EE0039AD20703D467236B44994698
:1006300007E030216A463F322723D15466226A44BC
:1006400091466B4667334A469F1A069B079314E010
:100650005A46002A00D1AEE069463F310A700022B6
:100660006B46B7331A700996894601279DE000232F
:10067000079302E0069F002207923E1C079B9F42C1
:1006800000DA1E1C6B46B7331B781B061B16002BAB
:1006900001D0013603E0039A920700D50236842385
:1006A000039D1D4012D1059B9C1B002C0EDD102CC0
:1006B00007DD48481021524600F0A2F8103C102CEB
:1006C000F7DC4448211C524600F09AF86846B730DF
:1006D0000023C356002B04D00121524600F090F8AD
:1006E0000CE0039A920709D568463D303023037029
:1006F0005B4643700221524600F082F8802D16D1ED
:10070000059A941B002C12DD102C0ADD314B1D1CA8
:100710001035281C1021524600F072F8103C102CA5
:10072000F7DC2C481030211C524600F069F8079B7A
:10073000DC1B002C12DD102C0ADD264B1D1C103595
:10074000281C1021524600F05BF8103C102CF7DCFE
:1007500020481030211C524600F052F84846391CFF
:10076000524600F04DF8039A520712D5059B9C1B88
:10077000002C0EDD102C07DD16481021524600F02B
:100780003FF8103C102CF7DC1248211C524600F0B8
:1007900037F8331C059A964200DA131C049AD218D3
:1007A0000492E8E40C4B994606273E1E00DA002628
:1007B000002207926FE704982FB03CBC9046994600
:1007C000A246AB46F0BC02BC08470000E047000868
:1007D000F4470008A44700081048000830B581B06D
:1007E000041C0D1C131C054A1068211C2A1CFFF751
:1007F000B3FC01B030BC02BC08470000240000205C
:1008000070B5051C0C1C101C002A03D00E22835E40
:10081000013302D0002C14D11CE0828982239B007A
:100820001A42F7D00668002909D0311C221C2B7807
:100830000B7001310135013A002AF8D136190660F2
:1008400008E0287801350006001603F037FE013C69
:10085000002CF6D170BC01BC0047000030B581B05F
:10086000041C00F053F8051C201C291C0022FFF773
:10087000C7FF0A2003F022FE281C01B030BC02BCD6
:100880000847C04610F0030F034670B4C9B210D039
:1008900002B303788B421ED0013A013005E0CAB1A1
:1008A00010F8014B013A8C4217D010F0030F0346A9
:1008B000F5D1032A13D86AB1187888420DD0013ACD
:1008C0005C1C04E014F8015B013A8D4203D0204621
:1008D000002AF7D1104670BC70471846FBE741EA82
:1008E000012646EA0646184653F8044B86EA0404F5
:1008F000A4F1013525EA040414F0803F03D1043A41
:100900001846032AEFD80346D5E700BF20F00301BD
:1009100010F00300C0F1000051F8043B00F1040C9A
:100920004FEACC0C6FF000021CBF22FA0CF213430A
:100930004FF0010C4CEA0C2C4CEA0C4CA3EB0C02D3
:1009400022EA030212EACC1204BF51F8043B04303D
:10095000F4D013F0FF0F1FBF013013F47F4F0130AD
:1009600013F47F0F18BF0130704700BF2DE9F0412D
:100970000C4686B0054690461E46B1B140F21813AB
:10098000C2F200031F6800F0CBF8009621464246F1
:1009900003462846B847B0F1FF3F03D10023336038
:1009A0008A232B6006B0BDE8F08140F21813C2F232
:1009B00000031F6800F0B4F8009603A9224603461E
:1009C0002846B847E7E700BF2DE9F043074687B060
:1009D00088461546E8B140F2240440F21813C2F2EA
:1009E0000003C2F200041E68D4F8009000F098F8EA
:1009F00000953946424603464846B047B0F1FF3FAE
:100A000004D1236800222A608A221A6007B0BDE858
:100A1000F08340F2240440F21813C2F20003C2F241
:100A200000041E68D4F8008000F07AF8009503A94D
:100A30003A4603464046B047E0E700BF10B582B0F3
:100A4000049C00934FF0FF33019400F079F902B059
:100A500010BD00BF30B540F2240483B0C2F20004E0
:100A60000D46014600922A4601934FF0FF3320685D
:100A700000F066F903B030BD034621B1FF2A04D867
:100A80000A7001207047084670478A224FF0FF30F5
:100A90001A6070472DE9F04140F21814C2F20004C8
:100AA00082B01E46054688461746246800F038F88E
:100AB000009641463A4603462846A04702B0BDE8A4
:100AC000F08100BF10B514463AB144F61C0110463F
:100AD000C0F6000100F046F820B944F61800C0F650
:100AE000000010BD44F618012046C0F6000100F0D9
:100AF00039F820B944F61800C0F6000010BD44F2E1
:100B0000C8712046C0F6000100F02CF844F6180326
:100B1000C0F6000300280CBF1846002010BD00BF1F
:100B200040F21C10C2F20000704700BF40F21C13DC
:100B3000C2F20003186A7047004870474001002065
:100B400000207047004870476001002040F22403F5
:100B50000A46C2F2000301461868B3E7004870472E
:100B60006001002080EA010212F0030F3AD110F078
:100B7000030220F0030021F0030150F804CB08BF6A
:100B800051F8043B0DD082F003024FEAC2026FF02D
:100B90007F4323FA02F251F8043B4CEA020C43EA89
:100BA000020300BFACF101329C4501BF22EA0C02F6
:100BB00012F0803F50F804CB51F8043BF2D04FEADA
:100BC0000C604FEA1C2C012828BFB0EB036F08BF54
:100BD0001B0AF4D003F0FF034FEA1060A0EB030000
:100BE000704700BF10F0030F0AD010F8012B11F866
:100BF000013B012A28BF9A42F4D0A2EB03007047C0
:100C00004DF8045D4DF8044D4FF0010242EA022216
:100C100042EA024201F0030C21F0030150F8044BB8
:100C200051F8045BBCF1020F26D04BD824F07F4C66
:100C3000BCEB152FA4EB020323EA04030DD113EA46
:100C4000C21308BF51F8045B0AD18CEA040CBCEB58
:100C5000056F0CD150F8044BE8E74FEA15255CE02E
:100C600033F07F4352D10D784FEA146C55E04FEAD0
:100C7000146C05F0FF0550E04FEA044CA4EB0203AE
:100C80004FEA1C4C23EA0403BCEB154F17D113EABF
:100C9000C21308BF51F8045B07D18CEA040CBCEB0B
:100CA000054F08D150F8044BE6E71B042ED10D8800
:100CB0004FEA144C31E04FEA05454FEA144C4FEA35
:100CC00015452AE004F0FF0CBCEB156FA4EB020302
:100CD00023EA04030DD113EAC21308BF51F8045BE1
:100CE0000AD18CEA040CBCEB052F0AD150F8044B56
:100CF000E8E74FEA156510E014F0FF0F06D051F851
:100D0000045B4FEA142C25F07F4506E04FF000000D
:100D10005DF8044B5DF8045B70470CF0FF0205F0D2
:100D2000FF00012828BF904204BF4FEA1C2C2D0A67
:100D3000F3D0A2EB00005DF8044B5DF8045B704754
:100D40002DE9F04F8DB09946079105900692179EB8
:100D5000002955D016991768002960D0C846B9F106
:100D6000000F40D0079D4FF0000809AC40F2181268
:100D7000C2F200020492049B3168726857F804AB17
:100D8000D3F800B003910292FFF7CAFE0096214605
:100D9000524603460598D847B0F1FF3F27D0169A30
:100DA00000EB08039A421AD3079961B1002806DDC7
:100DB0000022A15CA95401328242FAD1AD180699F1
:100DC0000A6804320A6057F8042C002A1ED01699CB
:100DD000994213D9B9F1010910D09846CBE7039A8B
:100DE000029B3260736040460DB0BDE8F08F0599FC
:100DF0008A2380460B6000233360F4E79846F2E7CD
:100E0000069A4FF0FF3317681693A7E7079909B1C1
:100E100006990A6003F1FF3800233360E3E7DDF849
:100E20005880E0E7F0B540F2240483B0C2F2000439
:100E300007460E4620681546089C39460093324600
:100E40002B460194FFF77CFF03B0F0BD2DE9704FF6
:100E50008AB004460D4600F04FF840F29816C2F2F0
:100E6000000696F90030B3F1FF3F8046894631D045
:100E70002046294600F020F900282BD04FF0000A28
:100E80004FF0000B2046294652465B4600F0CCFE50
:100E900000B3367844F62803C0F60003012201931C
:100EA000002300920893CDE90445CDE90245B6B18F
:100EB0005046594652465B4600F06EFD022ECDE983
:100EC00006010ED100F042F921230360089B73B99B
:100ED000DDE90689404649460AB0BDE8708FCDE994
:100EE00006AB684600F030F90028EFD1EAE700F0E1
:100EF0002DF9089B0360EBE74FF0000C02462DE94B
:100F0000F843E046C7F6F07CC7F6F07801EA0C0C2F
:100F10000446C4450D460B460E46074600F0B08019
:100F2000002940F3A0800A157ED026F07F4312F0FE
:100F3000010FA2F57E7C23F47003ACF1070C43F49F
:100F4000801362D0FA0F002602EB43034FEA6C0CC9
:100F50007F00162031464FF400128C18FD0F9C4282
:100F60004FEA4707DEBFC4EB0303A118B6185208C7
:100F7000013805EB4303F0D1202580464FF00042B5
:100F8000994202EB08040EDB8B4214BF4FF00009BC
:100F90004FF00109BC428CBF4FF0000909F0010974
:100FA000B9F1000F0ED004F0004904EB0208B9F1CA
:100FB000004F23D089465B1ABC4288BF013B3F1BD0
:100FC00080184946FC0F52087F00013D04EB4303A3
:100FD000D6D13B431ED140084FEA0C52731002F1A8
:100FE0007E5216F0010F18BF40F0004002F5C0021B
:100FF000D518044620462946BDE8F883B8F1000F0D
:10100000A8BF01F10109D6DAD4E7FA0F7F0002EB9D
:10101000430397E7B0F1FF3F1CBF00F0010318182E
:10102000D9D101362846D7E7012216F4801335D1ED
:101030007600013316F4801FFAD0C3F1200137FA8D
:1010400001F1D21A0E439F4026F07F4312F0010FA8
:10105000A2F57E7C23F47003ACF1070C43F48013FB
:101060007FF470AFD1E721F0004C5CEA000CC1D0F6
:10107000B9B9FE0A153B7F05002EFAD05A1CD4E7F9
:1010800000F060FB02460B462046294600F0A8F916
:1010900004460D4620462946BDE8F883202100235A
:1010A000CDE702460B4600F099F902460B4600F0E8
:1010B00073FC04460D469DE750EA010310B43CD092
:1010C000D0F1010238BF0022B1F1004F14BF00235C
:1010D00002F00103002B30D14FF6FF73A1F5801011
:1010E000C7F6DF7301F1FE44984204F570048CBF2B
:1010F000002001209C428CBF034640F00103002BDE
:1011000020D1B1F5801F01F100402CBF0023012345
:10111000B0F5801F38BF43F001038BB911F5801F74
:10112000C7F6F07314BF00200120994214BF014696
:1011300040F0010102EA010000E0022010BC70470B
:101140000320FBE70420F9E70020704740F2240366
:10115000C2F20003186870474A1E08BF7047C0F00B
:101160002481884240F21681114200F01781B0FAC2
:1011700080F3B1FA81F2A2EB0303C3F11F0304A2CF
:1011800002EB03134FF000029F4600BFAFF3008055
:10119000B0EBC17F00BF42EB020228BFA0EBC170E1
:1011A000B0EB817F00BF42EB020228BFA0EB817051
:1011B000B0EB417F00BF42EB020228BFA0EB4170C1
:1011C000B0EB017F00BF42EB020228BFA0EB017031
:1011D000B0EBC16F00BF42EB020228BFA0EBC160C1
:1011E000B0EB816F00BF42EB020228BFA0EB816031
:1011F000B0EB416F00BF42EB020228BFA0EB4160A1
:10120000B0EB016F00BF42EB020228BFA0EB016010
:10121000B0EBC15F00BF42EB020228BFA0EBC150A0
:10122000B0EB815F00BF42EB020228BFA0EB815010
:10123000B0EB415F00BF42EB020228BFA0EB415080
:10124000B0EB015F00BF42EB020228BFA0EB0150F0
:10125000B0EBC14F00BF42EB020228BFA0EBC14080
:10126000B0EB814F00BF42EB020228BFA0EB8140F0
:10127000B0EB414F00BF42EB020228BFA0EB414060
:10128000B0EB014F00BF42EB020228BFA0EB0140D0
:10129000B0EBC13F00BF42EB020228BFA0EBC13060
:1012A000B0EB813F00BF42EB020228BFA0EB8130D0
:1012B000B0EB413F00BF42EB020228BFA0EB413040
:1012C000B0EB013F00BF42EB020228BFA0EB0130B0
:1012D000B0EBC12F00BF42EB020228BFA0EBC12040
:1012E000B0EB812F00BF42EB020228BFA0EB8120B0
:1012F000B0EB412F00BF42EB020228BFA0EB412020
:10130000B0EB012F00BF42EB020228BFA0EB01208F
:10131000B0EBC11F00BF42EB020228BFA0EBC1101F
:10132000B0EB811F00BF42EB020228BFA0EB81108F
:10133000B0EB411F00BF42EB020228BFA0EB4110FF
:10134000B0EB011F00BF42EB020228BFA0EB01106F
:10135000B0EBC10F00BF42EB020228BFA0EBC100FF
:10136000B0EB810F00BF42EB020228BFA0EB81006F
:10137000B0EB410F00BF42EB020228BFA0EB4100DF
:10138000B0EB010F00BF42EB020228BFA0EB01004F
:10139000104670470CBF012000207047B1FA81F25F
:1013A000C2F11F0220FA02F0704708B14FF0FF307F
:1013B00000F00EB80029F8D02DE90340FFF7CCFE6D
:1013C000BDE8064002FB00F3A1EB0301704700BF3C
:1013D000704700BF81F0004102E000BF83F000438E
:1013E00030B54FEA41044FEA430594EA050F08BFC0
:1013F00090EA020F1FBF54EA000C55EA020C7FEA84
:10140000645C7FEA655C00F0E2804FEA5454D4EB00
:101410005555B8BF6D420CDD2C4480EA020281EACA
:10142000030382EA000083EA010180EA020281EA02
:101430000303362D88BF30BD11F0004F4FEA013154
:101440004FF4801C4CEA113102D0404261EB410163
:1014500013F0004F4FEA03334CEA133302D05242E9
:1014600063EB430394EA050F00F0A780A4F10104A5
:10147000D5F1200E0DDB02FA0EFC22FA05F28018DF
:1014800041F1000103FA0EF2801843FA05F35941C5
:101490000EE0A5F120050EF1200E012A03FA0EFC44
:1014A00028BF4CF0020C43FA05F3C01851EBE3716E
:1014B00001F0004507D54FF0000EDCF1000C7EEB8B
:1014C00000006EEB0101B1F5801F1BD3B1F5001FC9
:1014D0000CD349085FEA30004FEA3C0C04F10104E8
:1014E0004FEA445212F5800F80F09A80BCF1004F11
:1014F00008BF5FEA500C50F1000041EB045141EA93
:10150000050130BD5FEA4C0C404141EB010111F493
:10151000801FA4F10104E9D191F0000F04BF01463E
:101520000020B1FA81F308BF2033A3F10B03B3F11C
:1015300020020CDA0C3208DD02F1140CC2F10C02AC
:1015400001FA0CF021FA02F10CE002F11402D8BF0A
:10155000C2F1200C01FA02F120FA0CFCDCBF41EAD6
:101560000C019040E41AA2BF01EB0451294330BDA5
:101570006FEA04041F3C1CDA0C340EDC04F1140482
:10158000C4F1200220FA04F001FA02F340EA030059
:1015900021FA04F345EA030130BDC4F10C04C4F19F
:1015A000200220FA02F001FA04F340EA030029467F
:1015B00030BD21FA04F0294630BD94F0000F83F4C9
:1015C000801306BF81F480110134013D4EE77FEAAC
:1015D000645C18BF7FEA655C29D094EA050F08BFF8
:1015E00090EA020F05D054EA000C04BF19461046D9
:1015F00030BD91EA030F1EBF0021002030BD5FEA1D
:10160000545C05D14000494128BF41F0004130BD44
:1016100014F580043CBF01F5801130BD01F0004598
:1016200045F0FE4141F470014FF0000030BD7FEA0B
:10163000645C1ABF194610467FEA655C1CBF0B4606
:10164000024650EA013406BF52EA033591EA030F1D
:1016500041F4002130BD00BF90F0000F04BF002115
:10166000704730B54FF4806404F132044FF0000548
:101670004FF0000150E700BF90F0000F04BF0021C1
:10168000704730B54FF4806404F1320410F0004527
:1016900048BF40424FF000013EE700BF42004FEA22
:1016A000E2014FEA31014FEA02701FBF12F07F439F
:1016B00093F07F4F81F06051704792F0000F14BF9C
:1016C00093F07F4F704730B54FF4607401F00045E0
:1016D00021F0004120E700BF50EA010208BF704737
:1016E00030B54FF000050AE050EA010208BF70472C
:1016F00030B511F0004502D5404261EB41014FF495
:10170000806404F132045FEA915C3FF4DCAE4FF098
:1017100003025FEADC0C18BF03325FEADC0C18BF7F
:10172000033202EBDC02C2F1200300FA03FC20FAD0
:1017300002F001FA03FE40EA0E0021FA02F114441D
:10174000C1E600BF70B54FF0FF0C4CF4E06C1CEA32
:1017500011541DBF1CEA135594EA0C0F95EA0C0FA7
:1017600000F0DEF82C4481EA030621EA4C5123EA1A
:101770004C5350EA013518BF52EA033541F4801149
:1017800043F4801338D0A0FB02CE4FF00005E1FBFC
:1017900002E506F00042E0FB03E54FF00006E1FB46
:1017A00003569CF0000F18BF4EF0010EA4F1FF0489
:1017B000B6F5007F64F5407404D25FEA4E0E6D41C9
:1017C00046EB060642EAC62141EA55514FEAC520DA
:1017D00040EA5E504FEACE2EB4F1FD0C88BFBCF556
:1017E000E06F1ED8BEF1004F08BF5FEA500E50F107
:1017F000000041EB045170BD06F0004646EA0101CD
:1018000040EA020081EA0301B4EB5C04C2BFD4EBFE
:101810000C0541EA045170BD41F480114FF0000EF7
:10182000013C00F3AB8014F1360FDEBF002001F065
:10183000004170BDC4F10004203C35DA0C341BDCDF
:1018400004F11404C4F1200500FA05F320FA04F0B1
:1018500001FA05F240EA020001F0004221F00041E5
:1018600010EBD37021FA04F642EB06015EEA430E58
:1018700008BF20EAD37070BDC4F10C04C4F1200588
:1018800000FA04F320FA05F001FA04F240EA02003B
:1018900001F0004110EBD37041F100015EEA430E0C
:1018A00008BF20EAD37070BDC4F1200500FA05F22C
:1018B0004EEA020E20FA04F301FA05F243EA0203AB
:1018C00021FA04F001F0004121FA04F220EA0200BA
:1018D00000EBD3705EEA430E08BF20EAD37070BD00
:1018E00094F0000F0FD101F00046400041EB0101E0
:1018F00011F4801F08BF013CF7D041EA060195F0C2
:10190000000F18BF704703F00046520043EB03037B
:1019100013F4801F08BF013DF7D043EA0603704768
:1019200094EA0C0F0CEA135518BF95EA0C0F0CD073
:1019300050EA410618BF52EA4306D1D181EA0301B9
:1019400001F000414FF0000070BD50EA410606BFB3
:101950001046194652EA430619D094EA0C0F02D1F8
:1019600050EA013613D195EA0C0F05D152EA03363D
:101970001CBF104619460AD181EA030101F000415B
:1019800041F0FE4141F470014FF0000070BD41F0A4
:10199000FE4141F4780170BD70B54FF0FF0C4CF47E
:1019A000E06C1CEA11541DBF1CEA135594EA0C0F9D
:1019B00095EA0C0F00F0A7F8A4EB050481EA030EEA
:1019C00052EA03354FEA013100F088804FEA0333D1
:1019D0004FF0805545EA131343EA12634FEA02229F
:1019E00045EA111545EA10654FEA00260EF0004160
:1019F0009D4208BF964244F1FD0404F5407402D2B2
:101A00005B084FEA3202B61A65EB03055B084FEA42
:101A100032024FF480104FF4002CB6EB020E75EB3F
:101A2000030E22BFB61A754640EA0C005B084FEA67
:101A30003202B6EB020E75EB030E22BFB61A7546E4
:101A400040EA5C005B084FEA3202B6EB020E75EB2F
:101A5000030E22BFB61A754640EA9C005B084FEAA7
:101A60003202B6EB020E75EB030E22BFB61A7546B4
:101A700040EADC0055EA060E18D04FEA051545EAA3
:101A800016754FEA06164FEAC30343EA52734FEA4C
:101A9000C2025FEA1C1CC0D111F4801F0BD141EAC5
:101AA00000014FF000004FF0004CB6E711F4801F2A
:101AB00004BF01430020B4F1FD0C88BFBCF5E06F0A
:101AC0003FF6AFAEB5EB030C04BFB6EB020C5FEA1A
:101AD000500C50F1000041EB045170BD0EF0004E6F
:101AE0004EEA113114EB5C04C2BFD4EB0C0541EAA1
:101AF000045170BD41F480114FF0000E013C90E69E
:101B000045EA060E8DE60CEA135594EA0C0F08BF61
:101B100095EA0C0F3FF43BAF94EA0C0F0AD150EA60
:101B200001347FF434AF95EA0C0F7FF425AF1046F3
:101B300019462CE795EA0C0F06D152EA03353FF41B
:101B4000FDAE1046194622E750EA410618BF52EA98
:101B500043067FF4C5AE50EA41047FF40DAF52EA6C
:101B600043057FF4EBAE12E74FF0FF3C06E000BF09
:101B70004FF0010C02E000BF4FF0010C4DF804CD16
:101B80004FEA410C7FEA6C5C4FEA430C18BF7FEAD6
:101B90006C5C1BD001B050EA410C0CBF52EA430C04
:101BA00091EA030F02BF90EA020F0020704710F184
:101BB000000F91EA030F58BF994208BF90422CBF13
:101BC000D8176FEAE37040F0010070474FEA410C0C
:101BD0007FEA6C5C02D150EA013C07D14FEA430C2A
:101BE0007FEA6C5CD6D152EA033CD3D05DF8040B9B
:101BF000704700BF8446104662468C4619466346CD
:101C000000E000BF01B5FFF7B7FF002848BF10F1A3
:101C1000000F01BD4DF808EDFFF7F4FF0CBF0120E8
:101C200000205DF808FB00BF4DF808EDFFF7EAFF64
:101C300034BF012000205DF808FB00BF4DF808ED1F
:101C4000FFF7E0FF94BF012000205DF808FB00BF14
:101C50004DF808EDFFF7CEFF94BF012000205DF89E
:101C600008FB00BF4DF808EDFFF7C4FF34BF0120AB
:101C700000205DF808FB00BF4FEA410212F5001298
:101C800015D211D56FF47873B3EB625212D94FEAC3
:101C9000C12343F0004343EA505311F0004F23FAAD
:101CA00002F018BF404270474FF00000704750EA02
:101CB000013005D111F0004008BF6FF000407047BF
:101CC0004FF00000704700BF4FEA4102B2F1E0431D
:101CD00024BFB3F5001CDCF1FE5C0DD901F0004C13
:101CE0004FEAC0024CEA5070B2F1004F40EB830063
:101CF00008BF20F00100704711F0804F21D113F18F
:101D00003872BCBF01F00040704741F480114FEAC7
:101D10005252C2F11802C2F1200C10FA0CF320FA50
:101D200002F018BF40F001004FEAC1234FEAD3236D
:101D300003FA0CFC40EA0C0023FA02F34FEA4303D7
:101D4000CCE77FEA625307D150EA01331EBF4FF060
:101D5000FE4040F44000704701F0004040F0FE407B
:101D600040F40000704700BF80F0004002E000BF78
:101D700081F0004142001FBF5FEA410392EA030F76
:101D80007FEA226C7FEA236C6AD04FEA1262D2EBC0
:101D90001363C1BFD218414048404140B8BF5B42C5
:101DA000192B88BF704710F0004F40F4000020F05E
:101DB0007F4018BF404211F0004F41F4000121F074
:101DC0007F4118BF494292EA030F3FD0A2F10102BE
:101DD00041FA03FC10EB0C00C3F1200301FA03F1FC
:101DE00000F0004302D5494260EB4000B0F5000F1F
:101DF00013D3B0F1807F06D340084FEA310102F1DE
:101E00000102FE2A51D2B1F1004F40EBC25008BF8F
:101E100020F0010040EA03007047490040EB000059
:101E200010F4000FA2F10102EDD1B0FA80FCACF188
:101E3000080CB2EB0C0200FA0CF0AABF00EBC25087
:101E400052421843BCBFD0401843704792F0000F75
:101E500081F4000106BF80F400000132013BB5E7C8
:101E60004FEA41037FEA226C18BF7FEA236C21D03E
:101E700092EA030F04D092F0000F08BF08467047A3
:101E800090EA010F1CBF0020704712F07F4F04D171
:101E9000400028BF40F00040704712F100723CBF84
:101EA00000F50000704700F0004343F0FE4040F4AE
:101EB000000070477FEA226216BF08467FEA23636C
:101EC0000146420206BF5FEA412390EA010F40F457
:101ED000800070474FF0000304E000BF10F00043A3
:101EE00048BF40425FEA000C08BF704743F096438A
:101EF00001464FF000001CE050EA010208BF7047A5
:101F00004FF000030AE000BF50EA010208BF70472B
:101F100011F0004302D5404261EB41015FEA010C40
:101F200002BF84460146002043F0B64308BFA3F138
:101F30008053A3F50003BCFA8CF2083AA3EBC2531A
:101F400010DB01FA02FC634400FA02FCC2F1200239
:101F5000BCF1004F20FA02F243EB020008BF20F070
:101F60000100704702F1200201FA02FCC2F12002D6
:101F700050EA4C0021FA02F243EB020008BF20EACB
:101F8000DC7070474FF0FF0C1CEAD0521EBF1CEAF9
:101F9000D15392EA0C0F93EA0C0F6FD01A4480EAE7
:101FA000010C400218BF5FEA41211ED04FF00063D0
:101FB00043EA501043EA5111A0FB01310CF00040FC
:101FC000B1F5000F3EBF490041EAD3715B0040EA22
:101FD000010062F17F02FD2A1DD8B3F1004F40EBF2
:101FE000C25008BF20F00100704790F0000F0CF0C5
:101FF000004C08BF49024CEA502040EA51207F3A89
:10200000C2BFD2F1FF0340EAC250704740F4000063
:102010004FF00003013A5DDC12F1190FDCBF00F054
:1020200000407047C2F10002410021FA02F1C2F102
:10203000200200FA02FC5FEA310040F1000053EA9E
:102040004C0308BF20EADC70704792F0000F00F0EC
:10205000004C02BF400010F4000F013AF9D040EAF2
:102060000C0093F0000F01F0004C02BF490011F486
:10207000000F013BF9D041EA0C018FE70CEAD15384
:1020800092EA0C0F18BF93EA0C0F0AD030F0004C04
:1020900018BF31F0004CD8D180EA010000F00040B8
:1020A000704790F0000F17BF90F0004F084691F076
:1020B000000F91F0004F14D092EA0C0F01D14202B0
:1020C0000FD193EA0C0F03D14B0218BF084608D179
:1020D00080EA010000F0004040F0FE4040F40000C3
:1020E000704740F0FE4040F4400070474FF0FF0C56
:1020F0001CEAD0521EBF1CEAD15392EA0C0F93EA9D
:102100000C0F69D0A2EB030280EA010C49024FEAEE
:10211000402037D04FF0805343EA111143EA1013A7
:102120000CF000408B4238BF5B0042F17D024FF45F
:10213000000C8B4224BF5B1A40EA0C00B3EB510F3A
:1021400024BFA3EB510340EA5C00B3EB910F24BF23
:10215000A3EB910340EA9C00B3EBD10F24BFA3EBA8
:10216000D10340EADC001B0118BF5FEA1C1CE0D170
:10217000FD2A3FF650AF8B4240EBC25008BF20F023
:10218000010070470CF0004C4CEA50207F32C2BF77
:10219000D2F1FF0340EAC250704740F400004FF014
:1021A0000003013A37E792F0000F00F0004C02BF45
:1021B000400010F4000F013AF9D040EA0C0093F00F
:1021C000000F01F0004C02BF490011F4000F013B69
:1021D000F9D041EA0C0195E70CEAD15392EA0C0FD1
:1021E00008D142027FF47DAF93EA0C0F7FF470AF09
:1021F000084676E793EA0C0F04D14B023FF44CAF4C
:1022000008466EE730F0004C18BF31F0004CCAD1E0
:1022100030F000427FF45CAF31F000437FF43CAF1C
:102220005FE700BF4FEA4002B2F1FE4F0FD34FF01D
:102230009E03B3EB12620DD94FEA002343F0004333
:1022400010F0004F23FA02F018BF404270474FF0E1
:102250000000704712F1610F01D1420205D110F068
:10226000004008BF6FF0004070474FF0000070471B
:10227000002103E0094B5B58435004310848094BE7
:1022800042189A42F6D3084A02E0002342F8043B7F
:10229000064B9A42F9D300F093FD7047304800088E
:1022A000000000209C0100209C0100205002002022
:1022B000FEE7000010B501F0B7F84FF0020000F0A3
:1022C0003FFF4FF4802001F0D1F801F011FA01280E
:1022D00025D100F1FF3001F015F94FF4806001F0D5
:1022E0001DF94FF0000001F025F94FF480304FF454
:1022F000801101F0E1F84FF0010001F0E9F84FF032
:102300003904204601F0DAF90028FAD04FF0020033
:1023100001F0E4F801F0EEF80828FBD110BDFEE76B
:1023200008B54FF410304FF0010101F091F94FF072
:102330002C004FF0010101F079F908BD2DE9F043BF
:1023400083B04FF44064C4F20104204600F006FF5D
:102350004FF4A056C4F20106304600F0FFFE4FF4E1
:102360000065C4F20105284600F0F8FE4FF00408AD
:10237000C146ADF804804FF010038DF807304FF0E0
:1023800003078DF8067030460DEB080100F074FF6E
:102390004AF20003ADF804304FF018068DF80760DC
:1023A0008DF8067020460DEB080100F065FF4FF434
:1023B0008043ADF804308DF807808DF80670204614
:1023C0000DEB080100F058FF4FF48073ADF80430B6
:1023D0008DF807808DF8067020460DEB080100F09F
:1023E0004BFFADF804808DF807608DF80670284625
:1023F0000DEB080100F040FF4FF00803ADF804308A
:102400008DF807808DF8067028460DEB080100F066
:1024100033FF03B0BDE8F08330B587B04FF038022A
:10242000ADF810204FF00003ADF804304FF4827285
:10243000ADF80620ADF80830ADF80E30ADF812302A
:102440004FF00203ADF80A304FF00105ADF80C5023
:102450004FF46054C4F20004204601A901F064F96D
:102460002046294601F084F907B030BD70B5064614
:102470004FF4A050C4F201004FF004014FF00002ED
:1024800000F06CFF46F080064FF46054C4F2000484
:102490004FF002052046294601F080F90028F9D0C6
:1024A0004FF46050C4F20000314601F071F94FF46E
:1024B0006054C4F200044FF001052046294601F0A3
:1024C0006DF90028F9D04FF46050C4F2000001F01B
:1024D00061F94FF46054C4F200044FF00205204645
:1024E000294601F05BF90028F9D04FF46050C4F29E
:1024F00000004FF0FF0101F04BF94FF46054C4F2BB
:1025000000044FF001052046294601F047F9002854
:10251000F9D04FF46050C4F2000001F03BF90446DA
:102520004FF4A050C4F201004FF004014FF001023B
:1025300000F014FFE0B270BDF8B506460F464FF448
:10254000A050C4F201004FF004014FF0000200F06F
:1025500005FF4FF46054C4F200044FF0020520461A
:10256000294601F01BF90028F9D04FF46050C4F25D
:102570000000314601F00CF94FF46054C4F200043D
:102580004FF001052046294601F008F90028F9D04E
:102590004FF46050C4F2000001F0FCF84FF46054B6
:1025A000C4F200044FF002052046294601F0F6F877
:1025B0000028F9D04FF46050C4F20000394601F011
:1025C000E7F84FF46054C4F200044FF001052046D0
:1025D000294601F0E3F80028F9D04FF46050C4F226
:1025E000000001F0D7F84FF4A050C4F201004FF002
:1025F00004014FF0010200F0B1FEF8BD0000000040
:1026000070B54FF02D00FFF731FF40F2F815C2F220
:10261000000528604FF02C00FFF728FF40F2F01370
:10262000C2F2000318602C6840EA04244FEA045404
:102630004FEA145440F21823C2F200031C60B4F5B0
:10264000006F29D240F2E815C2F200052046FFF7DC
:1026500013F8D3A3D3E90023FFF79EF9FFF734FB68
:10266000286040F2E015C2F200054FF0640303FB5E
:1026700004F448F22B03C2F6D52383FB04134FEA7C
:102680006320FEF7F9FFC8A3D3E90023FEF7A6FEF7
:10269000FFF7F2FA287029E040F2E815C2F20005CF
:1026A0002046FEF7E9FFC2A3D3E90023FFF774F940
:1026B000C1A3D3E90023FEF791FEFFF705FB2860D5
:1026C00040F2E013C2F200036FF0630202FB04F475
:1026D0004FF6C912C8F2A94282FB041212194FEA3E
:1026E000E474C4EB622404F164041C7040F2E81347
:1026F000C2F200031D682846FFF794FD40F2EC1378
:10270000C2F20003186040F22024C2F20004FFF776
:10271000E5FB01462846FFF72BFB4FF4A041C4F22E
:10272000C371FFF72FFCFFF77DFD20604FF02B00FA
:10273000FFF79CFE40F2F815C2F2000528604FF04A
:102740002A00FFF793FE40F2F013C2F20003186074
:102750002C6840EA04244FEA04544FEA145440F22F
:102760001C23C2F200031C60B4F57E7F21D24FEA25
:1027700084131B1B48F6BF55C8F2221585FB0320A6
:10278000C0184FEAE373C3EB602000F14000FFF78D
:10279000A5FB064640F2E113C2F200034FF06402CB
:1027A00002FB04F485FB04152C194FEA64241C7009
:1027B00037E02046FEF760FF4FF000024FF00003C5
:1027C000C4F25003FEF7BEFF7DA3D3E90023FFF759
:1027D000E3F87DA3D3E90023FEF700FEFFF774FAC8
:1027E000064640F2E115C2F200056FF0630303FBF9
:1027F00004F448F6BF53C8F2221383FB04231819CC
:102800004FEAE474C4EB6020FEF736FF70A3D3E90F
:102810000023FEF7E5FD01F100431946FFF72CFA0E
:1028200028703046FFF7FEFC40F2D413C2F20003DA
:10283000186040F2E414C2F20004FFF74FFB0146B7
:102840003046FFF795FA4FF4A041C4F2C371FFF789
:1028500099FBFFF7E7FC20604FF02900FFF706FE29
:1028600040F2F815C2F2000528604FF02800FFF78B
:10287000FDFD40F2F013C2F2000318602C6840EA3C
:1028800004244FEA04544FEA145440F2DC13C2F219
:1028900000031C60B4F57E7F25D240F21026C2F200
:1028A00000064FEA84131B1B48F6BF55C8F22215D9
:1028B00085FB0310C0184FEAE373C3EB602000F1FF
:1028C0004000FFF70BFB306040F20423C2F200032C
:1028D0004FF0640202FB04F485FB04252C194FEA37
:1028E00064241C703BE040F21025C2F20005204633
:1028F000FEF7C2FE4FF000024FF00003C4F2500397
:10290000FEF720FF2EA3D3E90023FFF745F82EA3FF
:10291000D3E90023FEF762FDFFF7D6F9286040F205
:102920000425C2F200056FF0630303FB04F448F6CC
:10293000BF53C8F2221383FB041318194FEAE4743F
:10294000C4EB6020FEF798FE21A3D3E90023FEF735
:1029500047FD01F100431946FFF78EF9287040F258
:102960001023C2F200031D682846FFF75BFC40F20B
:102970000823C2F20003186040F20024C2F20004EF
:10298000FFF7ACFA01462846FFF7F2F94FF4A041F1
:10299000C4F2C371FFF7F6FAFFF744FC206070BD84
:1029A0000000000000E08E4085EB51B81E2540403D
:1029B0000000000000B09040A4703D0AD7A30E4074
:1029C0000000000000B88F40666666666646684094
:1029D00033333333333779402DE9F04F85B08246B6
:1029E0008B46019202FB02F20292019BC3F10003AB
:1029F0000393019A9A426FDBC61A4FF6FF771D4682
:102A0000029B05FB1530FEF737FEFEF71FFA4FF06D
:102A100000024FF00003C3F6E073FEF7E1FCFFF79E
:102A20002BF9044605EB0A0800EB0B094046494622
:102A30003A4601F07FFAC4EB0B04404621463A4681
:102A400001F078FA304649463A4601F073FA3046CA
:102A500021463A4601F06EFA05F1010506F1FF360E
:102A6000019AAA42CCDA039BC3EB0B064FF6FF7721
:102A70001D46029A05FB1520FEF7FEFDFEF7E6F95E
:102A80004FF000024FF00003C3F6E073FEF7A8FC1E
:102A9000FFF7F2F8804600EB0A0405EB0B0920462D
:102AA00049463A4601F046FA204631463A4601F098
:102AB00041FAC8EB0A04204649463A4601F03AFA80
:102AC000204631463A4601F035FA05F1010506F196
:102AD000FF36019BAB42CCDA05B0BDE8F08F00BFFA
:102AE0002DE9F04F85B082468B46019202FB02F23F
:102AF0000292019BC3F100030393019A9A426FDB98
:102B0000C61A4FF000071D46029B05FB1530FEF765
:102B1000B3FDFEF79BF94FF000024FF00003C3F640
:102B2000E073FEF75DFCFFF7A7F8044605EB0A0823
:102B300000EB0B09404649463A4601F0FBF9C4EB6D
:102B40000B04404621463A4601F0F4F93046494626
:102B50003A4601F0EFF9304621463A4601F0EAF9EB
:102B600005F1010506F1FF36019AAA42CCDA039B72
:102B7000C3EB0B064FF000071D46029A05FB15201C
:102B8000FEF77AFDFEF762F94FF000024FF0000306
:102B9000C3F6E073FEF724FCFFF76EF8804600EB07
:102BA0000A0405EB0B09204649463A4601F0C2F9F2
:102BB000204631463A4601F0BDF9C8EB0A042046EA
:102BC00049463A4601F0B6F9204631463A4601F008
:102BD000B1F905F1010506F1FF36019BAB42CCDAF4
:102BE00005B0BDE8F08F00BF10B582B04FF0000413
:102BF00000944FF0400021464FF001024FF0800357
:102C000001F0DEF9009420464FF040014FF08002C1
:102C10004FF0010301F0D4F94FF0400001464FF0AE
:102C20004102FFF75DFF4FF0400001464FF03702D1
:102C3000FFF756FF4FF0400001464FF02D02FFF71F
:102C40004FFF4FF0400001464FF02302FFF748FFCF
:102C50004FF0400001464FF01902FFF741FF4FF0DF
:102C6000400001464FF00F02FFF73AFF4FF04000DF
:102C700001464FF00502FFF733FF02B010BD00BF61
:102C800070B505460E4640F29C13C2F200031B6865
:102C900013BB4FF0400001464FF00102FFF720FF49
:102CA0004FF0400001464FF00202FFF719FF4FF0CE
:102CB000400001464FF00302FFF712FF4FF04000C3
:102CC00001464FF00402FFF70BFF40F29C13C2F2E3
:102CD00000034FF001021A60284631464FF000020F
:102CE000FFF7FEFE284631464FF00102FFF7F8FEDF
:102CF000284631464FF00202FFF7F2FE28463146E1
:102D00004FF00302FFF7ECFE284631464FF0040275
:102D1000FFF7E6FE4FF00504284631462246FFF74E
:102D20005BFE04F10104192CF6D1FFF75DFF70BDC5
:102D300000B583B04FF4C06000F016FB4FF02603DF
:102D40008DF804304FF000038DF805304FF002038A
:102D50008DF806304FF001038DF8073001A800F020
:102D60000DFB03B000BD00BF30B585B005464FF484
:102D70008844C4F20004204600F08AFE00954FF01B
:102D80000003ADF80430ADF80630ADF80830ADF80A
:102D90000C304FF00C03ADF80A302046694600F0C5
:102DA000DFFE20464FF0010100F034FF204640F2E4
:102DB00025514FF0010200F03DFF05B030BD00BFCE
:102DC0002DE9F04184B0FFF775FA01F035F900F014
:102DD00083FFFFF7A5FAFFF7B1FAFFF71DFB4FF4EA
:102DE0001650FFF7C1FFFFF7A3FF4FF4A050C4F246
:102DF00001004FF004014FF0010200F0AFFA4FF074
:102E000020004FF0C701FFF797FB4FF00F00FFF7CF
:102E10002DFB40F29C14C2F2000440F21427C2F2CF
:102E2000000744F2C478C0F60008FFF7E9FB6368C6
:102E3000012B40F0F2804FF0000363604FF48840B4
:102E4000C4F2000000F01AFFC0B238703B78A3F162
:102E50005803212B00F2E180DFE813F0220081000B
:102E6000DF00DF00DF00DF00DF00DF00DF00DF006A
:102E7000DF00DF00DF00DF00DF00DF00DF00DF005A
:102E8000DF00DF00DF00DF00DF00DF00DF00DF004A
:102E9000DF00DF00DF00DF00DF00DF002200810055
:102EA00040F20423C2F200036846414693F9002031
:102EB000FDF72EF94FF48845C4F200054FF0800667
:102EC0002846314600F0E0FE0028F9D09DF90010B8
:102ED0004FF48840C4F2000089B200F0C9FE4FF4FC
:102EE0008845C4F200054FF080062846314600F0C0
:102EF000CBFE0028F9D09DF901104FF48840C4F2B0
:102F0000000089B200F0B4FE4FF48845C4F2000519
:102F10004FF080062846314600F0B6FE0028F9D072
:102F20009DF902104FF48840C4F2000089B200F00D
:102F30009FFE4FF48845C4F200054FF080062846F6
:102F4000314600F0A1FE0028F9D09DF903104FF49E
:102F50008840C4F2000089B200F08AFE5DE040F2D1
:102F6000E113C2F200036846414693F90020FDF7E1
:102F7000CFF84FF48845C4F200054FF0800628468C
:102F8000314600F081FE0028F9D09DF900104FF481
:102F90008840C4F2000089B200F06AFE4FF4884510
:102FA000C4F200054FF080062846314600F06CFE62
:102FB0000028F9D09DF901104FF48840C4F20000B8
:102FC00089B200F055FE4FF48845C4F200054FF079
:102FD00080062846314600F057FE0028F9D09DF9BA
:102FE00002104FF48840C4F2000089B200F040FEA5
:102FF0004FF48845C4F200054FF08006284631465C
:1030000000F042FE0028F9D09DF903104FF48840EB
:10301000C4F2000089B200F02BFE40F20822C2F296
:10302000000240F2D413C2F2000310681968FFF7DF
:1030300027FEFAE6704700BF704700BF704700BF29
:10304000704700BF704700BF704700BF38B54FF4EE
:103050004064C4F2010420464FF4007100F078F996
:10306000C0F1010220464FF40071D2B200F076F9AF
:103070004FF40064C4F201044FF0010520462946D4
:1030800000F05CF90128F9D04FF0010000F052F88F
:1030900038BD00BF704700BF704700BF704700BF1A
:1030A000704700BF704700BF704700BF704700BF48
:1030B000704700BF704700BF704700BF704700BF38
:1030C000704700BF704700BF704700BF704700BF28
:1030D000704700BF704700BF704700BF704700BF18
:1030E000704700BF704700BF704700BF704700BF08
:1030F000704700BF704700BF704700BF704700BFF8
:1031000008B540F2A013C2F200034FF001021A60AA
:103110004FF48840C4F2000040F2255100F0BAFD9F
:1031200008BD00BF704700BF704700BF704700BFB9
:10313000704700BF4FF48063C4F2010358617047C9
:103140004FF40053C4F202031A6802F038021A6006
:103150001A6840EA02021A60704700BF08B54FF4CF
:10316000A053C4F20103984252D04FF4A053C4F2CA
:103170000103984212D84FF44063C4F2010398420D
:103180002CD04FF48053C4F20103984233D04FF453
:103190000063C4F2010398426DD112E04FF4E05392
:1031A000C4F2010398424DD04FF40053C4F201031E
:1031B000984254D04FF4C053C4F2010398425AD1FC
:1031C00033E04FF004004FF0010100F053FA4FF0EC
:1031D00004004FF0000100F04DFA08BD4FF0080068
:1031E0004FF0010100F046FA4FF008004FF00001E7
:1031F00000F040FA08BD4FF010004FF0010100F060
:1032000039FA4FF010004FF0000100F033FA08BD1A
:103210004FF020004FF0010100F02CFA4FF0200099
:103220004FF0000100F026FA08BD4FF040004FF0CB
:10323000010100F01FFA4FF040004FF0000100F0D4
:1032400019FA08BD4FF080004FF0010100F012FAAA
:103250004FF080004FF0000100F00CFA08BD4FF471
:1032600080704FF0010100F005FA4FF480704FF0CC
:10327000000100F0FFF908BD2DE9F003CB7803F061
:103280000F0513F0100F1CBF8B781D430B7833B361
:10329000D0F800C04FF000034FF001064FF00F08C8
:1032A00006FA03F20C8802EA0404944211D14FEAB0
:1032B000830708FA07F92CEA090C05FA07F74CEA24
:1032C000070CCF78282F08BF446102D0482F08BFD1
:1032D000026103F10103082BE2D1C0F800C00B88A2
:1032E000FF2B28D9D0F804C04FF000034FF001069F
:1032F0004FF00F0803F1080206FA02F20C8802EA06
:103300000404944211D14FEA830708FA07F92CEA22
:10331000090C05FA07F74CEA070CCF78282F08BFED
:103320004461CC78482C08BF026103F10103082BEB
:10333000E0D1C0F804C0BDE8F003704783681942CB
:103340000CBF002001207047806880B2704700BF2A
:10335000C36819420CBF0020012070470AB1016107
:1033600070474161704700BF40F0BE6040F42020CC
:103370004FF46D43CEF20003D860704770B4C37849
:10338000002B3ED04FF46D43CEF20003DB686FEAB2
:103390000303C3F30223C3F10402457805FA02F2E2
:1033A0004FF00F0525FA03F581780D4015434FEADC
:1033B0000515027802F003044FEAC40405FA04F587
:1033C0004FEA92024FF46143CEF2000302F1C002D1
:1033D00053F822604FF0FF0101FA04F126EA0104DC
:1033E00005EA0101214343F8221002784FEA521105
:1033F00002F01F024FF0010000FA02F243F8212010
:1034000010E003784FEA531203F01F034FF001015D
:1034100001FA03F14FF46143CEF2000302F12002FE
:1034200043F8221070BC70474FF48053C4F202037B
:103430001A6842F001021A6059684FF00002CFF694
:10344000FF0201EA02025A601A6822F0847222F432
:1034500080321A601A6822F480221A605A6822F4B4
:10346000FE025A604FF000029A6070474FF480539A
:10347000C4F202031A6822F480321A601A6822F435
:1034800080221A60B0F5803F03D0B0F5802F11D1B3
:1034900008E04FF48053C4F202031A6842F4803209
:1034A0001A6070474FF48053C4F202031A6842F462
:1034B000A0221A60704700BF4FF48053C4F2020389
:1034C0005A6822F47C1240EA02020A435A607047AA
:1034D0004FF06003C4F24223186070474FF48053EA
:1034E000C4F202035A6822F0030240EA02025A6060
:1034F000704700BF4FF48053C4F20203586800F0D5
:103500000C0070474FF48053C4F202035A6822F053
:10351000F00240EA02025A60704700BF4FF4805345
:10352000C4F202035A6822F4E06240EA02025A60DE
:10353000704700BF4FF48053C4F202035A6822F46C
:10354000605242EAC0025A60704700BF10B44FF4A4
:103550008053C4F202035B6803F00C03042B02BF28
:103560004FF4D853C0F2B703036036D0082B06D00F
:1035700073BB4FF49053C0F27A0303602DE04FF415
:103580008053C4F202035A68C2F3834202F102027A
:103590005B6813F4803F07D14FF41063C0F23D0322
:1035A00003FB02F2026018E04FF48053C4F20203FE
:1035B0005B6813F4003F19BF48F68053C0F25B0309
:1035C0004FF4D853C0F2B70303FB02F2026004E0E9
:1035D0004FF49053C0F27A0303604FF48052C4F268
:1035E0000202516844F22C63C0F60003C1F30311D8
:1035F000595C046824FA01F141605468C4F3022460
:103600001C5D21FA04F484605468C4F3C2241C5D78
:1036100021FA04F1C1605268C2F381329B181B7C0D
:10362000B1FBF3F1016110BC704700BF39B14FF439
:103630008053C4F202039A691043986170474FF4B3
:103640008053C4F202039A6922EA0000986170472D
:1036500039B14FF48053C4F20203DA691043D861E0
:1036600070474FF48053C4F20203DA6922EA000083
:10367000D861704739B14FF48053C4F20203DA685D
:103680001043D86070474FF48053C4F20203DA68E5
:1036900022EA0000D860704739B14FF48053C4F279
:1036A00002031A691043186170474FF48053C4F243
:1036B00002031A6922EA0000186170474FEA5013AA
:1036C000012B05D14FF48053C4F202031B6807E0BD
:1036D000022B4FF48053C4F202030CBF1B6A5B6AD7
:1036E00000F01F0023FA00F000F00100704700BF57
:1036F00010B582B04FF0000301934FF03104204623
:10370000FFF7DCFF019B03F10103019318B9019B53
:10371000B3F5A06FF3D14FF03100FFF7CFFF0038C2
:1037200018BF012002B010BD10B4028802F441524B
:103730004C880B8844EA03038C882343CC882343BA
:103740000C8923434C8923438C892343CC8923430D
:1037500042EA03039BB20380838B23F400634FEAA6
:1037600003434FEA134383830B8A038210BC7047E1
:1037700029B103889BB243F040030380704703885C
:1037800023F040034FEA03434FEA1343038070479B
:1037900081817047808980B2704700BF03891942D8
:1037A0000CBF00200120704708B54FF44063C4F2FD
:1037B0000003984269D04FF44063C4F2000398427A
:1037C00010D84FF48063C4F20003984243D04FF402
:1037D0000063C4F2000398424AD0B0F1804F40F039
:1037E00087802CE04FF4A053C4F20003984266D0C7
:1037F0004FF4A053C4F20003984206D84FF480530C
:10380000C4F20003984273D14CE04FF43053C4F239
:103810000103984206D04FF45053C4F2010398427A
:1038200066D159E04FF400604FF00101FFF722FF2D
:103830004FF400604FF00001FFF71CFF08BD4FF090
:1038400001000146FFF728FF4FF001004FF0000193
:10385000FFF722FF08BD4FF002004FF00101FFF714
:103860001BFF4FF002004FF00001FFF715FF08BDEE
:103870004FF004004FF00101FFF70EFF4FF004007E
:103880004FF00001FFF708FF08BD4FF008004FF0B0
:103890000101FFF701FF4FF008004FF00001FFF7B3
:1038A000FBFE08BD4FF010004FF00101FFF7F4FEE2
:1038B0004FF010004FF00001FFF7EEFE08BD4FF093
:1038C00020004FF00101FFF7E7FE4FF020004FF01E
:1038D0000001FFF7E1FE08BD4FF400504FF0010179
:1038E000FFF7C8FE4FF400504FF00001FFF7C2FE93
:1038F00008BD00BF038803F08F03038003889BB2D9
:10390000CA8813434A8813439BB203808B888385FC
:103910000B8803854FF0010383824FF43053C4F2C8
:1039200001034FF45052C4F20102904214BF00222E
:103930000122984214BF134642F001030BB10B7AE7
:103940000386704770B4038C23F010034FEA0343DF
:103950004FEA13430384038C8488A4B2028B22F4BD
:10396000E0424FEA02424FEA12420D8842EA052243
:1039700092B223F020034FEA03434FEA13430D8929
:1039800043EA05134D8843EA05139BB2CD880587AA
:103990004FF43055C4F201054FF45056C4F20106FD
:1039A000B04214BF00260126A84214BF354646F097
:1039B0000105CDB14FF67F7503EA05054B8945EA50
:1039C00003154FF6BF7305EA03038D8843EA051319
:1039D0009BB247F2FF3504EA05058C8945EA840568
:1039E000CC8945EA8404A4B284800283038470BC39
:1039F000704700BF4FF0FF3383804FF00003038018
:103A0000C3804380037270474FF0000303804380FC
:103A10008380C380038143818381C381704700BF5A
:103A200029B103889BB243F00103038070470388E8
:103A300023F001034FEA83534FEA93530380704707
:103A400022B183899BB219438181704783899BB2DC
:103A500023EA01018181704729B103889BB243F0B9
:103A6000800303807047038823F080034FEA835369
:103A70004FEA935303807047838B23F400634FEA2C
:103A800003434FEA134343EA01239BB28383704706
:103A900008B54FF49843C4F20003984245D04FF460
:103AA0009843C4F2000398420CD84FF48843C4F200
:103AB000000398421FD04FF49043C4F20003984291
:103AC0004CD125E04FF4A043C4F20003984239D012
:103AD0004FF46053C4F2010398423FD14FF4804049
:103AE0004FF00101FFF7C6FD4FF480404FF0000199
:103AF000FFF7C0FD08BD4FF400304FF00101FFF7A4
:103B0000CBFD4FF400304FF00001FFF7C5FD08BDBD
:103B10004FF480204FF00101FFF7BEFD4FF48020ED
:103B20004FF00001FFF7B8FD08BD4FF400204FF043
:103B30000101FFF7B1FD4FF400204FF00001FFF746
:103B4000ABFD08BD4FF480104FF00101FFF7A4FD5D
:103B50004FF480104FF00001FFF79EFD08BD00BF3D
:103B600030B587B004460D46038A23F440534FEA2C
:103B700003434FEA1343CA8813430382838923F420
:103B8000B05323F00C034FEA03434FEA1343098970
:103B9000AA8841EA020269890A4392B242EA03030F
:103BA0008381838A23F440734FEA03434FEA13432C
:103BB000AA891343838201A8FFF7C8FC4FF460531E
:103BC000C4F201039C420CBF0499039901EB8101EB
:103BD00001EB81012B684FEA8303B1FBF3F148F25B
:103BE0001F53C5F2EB13A3FB01024FEA52124FF031
:103BF000640002FB10114FEA011101F13201A3FB35
:103C00000103C3F3431343EA021292B2228107B0C5
:103C100030BD00BF29B183899BB243F40053838137
:103C20007047838923F400534FEA03434FEA134359
:103C30008381704710B4C1F3421301F01F014FF0AC
:103C4000010404FA01F1A34208BF0C3003D0022B97
:103C50000CBF1030143022B1036843EA0101016047
:103C600003E0036823EA0101016010BC704700BF54
:103C70004FEAC1514FEAD1518180704780884FEAA5
:103C8000C0504FEAD0507047038819420CBF002043
:103C9000012070474FEA11214FF0010303FA01F3AD
:103CA0006FEA03039BB20380704700BF00F18053AB
:103CB00003F5D8534FEA8303188880B2704700BFDA
:103CC00040F2A813C2F200034FF0FF321A804FF007
:103CD00000025A80704700BF00B583B000F0ACF915
:103CE00040F23423C2F20003187800F0C1FB40F226
:103CF0004023C2F200034FF062021A8040F22C23EC
:103D0000C2F200034FF003021A8040F22423C2F2F1
:103D100000034FF00A021A8040F23C23C2F2000373
:103D20004FF064021A6040F23823C2F200031A60B6
:103D300040F23023C2F200031A6040F24423C2F280
:103D400000034FF0FF321A60FFF7BAFF40F2A813EA
:103D5000C2F200031B8800934FF0000001464FF0B1
:103D60008402134600F0FAF803B000BDC368C9B27C
:103D700003F47F4341EA0303C360704708B589B287
:103D8000FFF7ECFA08BD00BF00B583B04FF0FF03AA
:103D9000ADF804304FF003038DF8063020B94FF032
:103DA00004038DF8073003E04FF010038DF807305F
:103DB0004FF48050C4F2010001A9FFF75DFA03B08F
:103DC00000BD00BF82B04FF0640303FB00F301931A
:103DD000019B33B1019B03F1FF330193019B002B46
:103DE000F8D102B0704700BF38B505464FF4805493
:103DF000C4F2010420464FF480714FF00002FFF737
:103E0000BDFF20464FF400714FF00102FFF7B6FFEF
:103E10004FF4A050C4F201004FF004014FF0000233
:103E2000FFF7ACFF20464FF480614FF00002FFF730
:103E3000A5FF20462946FFF799FF20464FF48061F1
:103E40004FF00102FFF79AFF38BD00BF38B50546B5
:103E50004FF48054C4F2010420464FF480714FF0B7
:103E60000102FFF78BFF20464FF400714FF0010273
:103E7000FFF784FF4FF4A050C4F201004FF004019B
:103E80004FF00002FFF77AFF20464FF480614FF0B9
:103E90000002FFF773FF20462946FFF767FF204621
:103EA0004FF480614FF00102FFF768FF38BD00BF9B
:103EB0002DE9F84380460E4691461F464FF02A00F2
:103EC000FFF792FFF6B240F20004C2F2000440F2A3
:103ED0003425C2F200052B7804EB830358683018B0
:103EE000C0B2FFF7B3FF2B7804EB83035B6803F1E9
:103EF000FF33F618F719F8B2FFF7A8FF4FF02B00C1
:103F0000FFF772FF5FFA88F62B7804EB830358699A
:103F10003018C0B2FFF79AFF2B7804EB8304636973
:103F2000F61806F1FF36B1445FFA89F0FFF78EFF0D
:103F3000BDE8F88310B514464FF001021346FFF7B1
:103F4000B7FF4FF02C00FFF74FFFE0B2FFF77EFF07
:103F50004FEA1420FFF77AFF10BD00BF2DE9F047AC
:103F600091461D46BDF8207000B209B212B21BB2D4
:103F7000FFF79EFF4FF02C00FFF736FFB9F1000F5F
:103F80001BD04FEA17264FF00008C246FFB211E0DF
:103F900054463846FFF75AFF3046FFF757FF04F103
:103FA0000104E4B2A542F4D808F101085FFA88F8E8
:103FB000C14502D9002DEBD1F6E7BDE8F08700BF7F
:103FC0002DE9F04182B005460E4690461F46BDF8E9
:103FD000204000944FF00103FFF7C0FF06F1FF31CE
:103FE00079180094284689B242464FF00103FFF742
:103FF000B5FF0094284631464FF001023B46FFF7DB
:10400000ADFF05F1FF35A84400941FFA88F0314652
:104010004FF001023B46FFF7A1FF02B0BDE8F0817F
:10402000B0F5805F40F20003C2F200032EBF1860BB
:104030004FF400421A6070472DE9F04782B04FF00C
:104040000300FFF733FEFFF7EBFF4FF010004FF0D8
:104050000101FFF7EBFA4FF010004FF00101FFF7FD
:10406000E5FA4FF020004FF00101FFF7DFFA4FF0C3
:1040700010004FF00101FFF7D9FA4FF008004FF0A0
:104080000101FFF7D3FA4FF08003ADF804304FF091
:10409000180A8DF807A04FF003098DF806904FF429
:1040A0004060C4F2010001A9FFF7E6F84FF00400F8
:1040B0004FF00101FFF7CCFA4FF40065C4F20005A0
:1040C0002846FFF771FB40F2B414C2F2000404F179
:1040D00014073846FFF78EFC04F104084046FFF74A
:1040E00093FC4FF0FF3323834FF00006A6826683D4
:1040F000E68228463946FFF7FDFB4FF06003A380B8
:104100004FF00107E78040F20003C2F200031B8872
:10411000638128464146FFF715FC28463146FFF7E4
:10412000ABFC28463946FFF797FC28464FF00401C0
:104130003A46FFF785FC28463946FFF771FC4FF4F5
:10414000B853ADF804308DF806904FF010058DF897
:1041500007504FF48054C4F20104204601A9FFF730
:104160008BF84FF00408ADF804808DF806908DF8B8
:1041700007504FF4A055C4F2010528460DEB080185
:10418000FFF77AF820464FF480713A46FFF7F6FDC4
:1041900020464FF400713A46FFF7F0FD28464146AD
:1041A0003A46FFF7EBFD20464FF480613A46FFF7B1
:1041B000E5FD20464FF480513246FFF7DFFD2046F3
:1041C0004FF480513A46FFF7D9FD20464FF4805115
:1041D0003246FFF7D3FD4FF4A060FFF7F3FD204612
:1041E0004FF480513A46FFF7C9FD4FF4A060FFF746
:1041F000E9FD3846FFF7C8FD4046FFF7F5FD3046BC
:10420000FFF7C2FD20464FF480713246FFF7B6FD3E
:1042100020464FF400713246FFF7B0FD2846414674
:104220003246FFF7ABFD20464FF480613A46FFF778
:10423000A5FD2046FFF788F820464FF400713A4666
:10424000FFF79CFD20464FF400713246FFF796FDC4
:104250002046FFF779F820464FF400713A46FFF701
:104260008DFD20464FF400713246FFF787FD204652
:10427000FFF76AF820464FF400713A46FFF77EFDDB
:1042800020464FF400713246FFF778FD2046FFF7D5
:104290005BF83846FFF778FD3846FFF7A5FD4FF08D
:1042A000D700FFF7A1FD4FF0BF00FFF7CFFD4FF0A4
:1042B000E000FFF799FD3046FFF7C8FD4FF0E3003F
:1042C000FFF792FD4FF0E100FFF78EFD4FF0280061
:1042D000FFF78AFD4FF01100FFF786FD4FF0C00099
:1042E000FFF782FD4FF0FB00FFF7B0FD3046FFF710
:1042F000ADFD4FF0C300FFF777FD3046FFF7A6FD99
:104300004FF0C400FFF770FD4FF00500FFF79EFD72
:104310004FF0C500FFF768FD4FF01100FFF796FD65
:104320004FF0CB00FFF760FD3846FFF78FFD4FF0F1
:10433000CC00FFF759FD3046FFF788FD4FF0CE0067
:10434000FFF752FD3046FFF781FD4FF0B700FFF752
:104350004BFD4FF0C000FFF779FD4FF0D000FFF7A5
:1043600043FD4FF01D00FFF771FD4FF0B400FFF764
:104370003BFD5046FFF76AFD4FF02000FFF734FD8C
:104380004FF02A00FFF730FD4046FFF75FFD4FF08A
:104390008300FFF75BFD4FF02B00FFF725FD404644
:1043A000FFF754FD4FF08300FFF750FD4FF03A0048
:1043B000FFF71AFD4FF00500FFF748FD4FF03600FC
:1043C000FFF712FD4FF09000FFF740FD4FF0B000F7
:1043D000FFF70AFD4FF07F00FFF738FD4FF029008F
:1043E000FFF702FD4FF0F900FFF7FEFC3046FFF744
:1043F0002DFD4846FFF72AFD4FF00500FFF726FD8B
:104400004FF00700FFF722FD4FF00900FFF71EFDF8
:104410004FF00B00FFF71AFD4FF00D00FFF716FDF0
:104420004FF00F00FFF712FD4FF01100FFF70EFDE8
:104430004FF01300FFF70AFD4FF01500FFF706FDE0
:104440004FF01700FFF702FD4FF01900FFF7FEFCD9
:104450004FF01B00FFF7FAFC4FF01D00FFF7F6FCD2
:104460004FF01F00FFF7F2FC02B0BDE8F08700BF7D
:1044700010B5044640F23423C2F2000318704FF026
:104480003600FFF7B1FC022C08D0032C0BD0012C16
:104490000ED14FF05000FFF7D9FC10BD4FF0F000E7
:1044A000FFF7D4FC10BD4FF09000FFF7CFFC10BD1C
:1044B0004FF03000FFF7CAFC10BD00BF43F60C03FD
:1044C000C4F201031A88F0B412F4005212D00A2880
:1044D00051D043F60002C4F20102B2F800C01CF051
:1044E000800FFAD043F6040380B2C4F201031880AF
:1044F000F0BC704741F21804C4F20204266840F68A
:10450000040146F0040727602568C4F2010145F064
:1045100001062660276843F6100647F480452560AB
:104520000F6843F6140527F0F0040C600F6843F69B
:10453000080447F0B0070F600F684FF00C0C27F429
:1045400070670F600F68C4F2010647F480670F6060
:10455000C4F2010540F24131C4F201043280A3F8F3
:1045600000C02A8021801A880A281FFA82FC4CF495
:1045700000511980ADD143F60C03C4F201031A882F
:1045800012F400520FD043F60002C4F20102138865
:1045900013F0800FFBD043F60401C4F201014FF089
:1045A0000D020A8095E741F21804C4F2020426685D
:1045B00040F6040146F0040727602568C4F20101B3
:1045C00045F001062660276843F6100647F480454B
:1045D00025600F6843F6140527F0F0040C600F689F
:1045E00043F6080447F0B0070F600F6840F2413C03
:1045F00027F470670F600F68C4F2010647F4806704
:104600000F60C4F201054FF00C01C4F201043280C6
:1046100019802A80A4F800C01A8891B241F4005C85
:10462000A3F800C0AFE700BF101C704700000000F7
:104630000102030401020304060708090204060834
:10464000FC01000850060008500600080E02000891
:1046500050060008500600085006000850060008E2
:104660005006000850060008180200083202000830
:1046700050060008280200083C0200085006000806
:104680009E020008A8020008A8020008A80200086C
:10469000A8020008A8020008A8020008A802000852
:1046A000A8020008A80200085006000850060008EA
:1046B0005006000850060008500600085006000882
:1046C00050060008500600085006000802030008C3
:1046D0004E03000850060008500600085006000867
:1046E0005006000850060008500600085006000852
:1046F000500600085006000850060008C4030008D1
:104700005006000850060008500600080C04000877
:1047100050060008E0040008500600085006000893
:10472000180500085006000850060008500600084A
:104730005006000850060008500600085006000801
:104740005006000850060008500600080203000842
:1047500056030008500600085006000850060008DE
:10476000CC02000856030008500600085006000856
:10477000D60200085006000892030008CC03000887
:10478000F2030008F8020008500600080C040008B4
:1047900050060008E804000850060008500600080B
:1047A000F60100082020202020202020202020208A
:1047B0002020202030303030303030303030303039
:1047C000303030302532640A00000000303132339E
:1047D000343536373839616263646566000000003D
:1047E0003031323334353637383941424344454627
:1047F0000000000062756720696E2076667072693D
:104800006E74663A20626164206261736500000024
:10481000286E756C6C29000043000000504F53490E
:10482000580000002E000000737172740000000038
:1048300000800000000000000000000004000000F4
:104840000400000004000000000000000000000060
:10485000040000002800002000000000000000000C
:104860000000000000000000000000000000000048
:1048700000000000000000001848000800000000D0
:104880000000000000000000000000000000000028
:104890000000000000000000000000000000000018
:1048A0000000000000000000000000000000000008
:1048B00000000000000000000000000000000000F8
:1048C00000000000000000000000000000000000E8
:1048D00000000000000000000000000000000000D8
:1048E00000000000000000000000000000000000C8
:1048F00000000000000000000000000000000000B8
:1049000000000000000000000000000000000000A7
:104910000000000000000000000000000000000097
:104920000000000000000000000000000000000087
:104930000000000000000000000000000000000077
:104940000000000000000000790A000841534349BC
:10495000490000000000000000000000000000000E
:104960000000000000000000000000000100000046
:1049700041534349490000000000000000000000CE
:104980000000000000000000000000000000000027
:1049900024480008C8470008C8470008C84700085E
:1049A000C8470008C8470008C8470008C8470008AB
:1049B000C8470008C8470008FFFFFFFFFFFFFFFFD1
:0C49C000FFFFFFFFFFFF000001000000F0
:0400000508000110DE
:00000001FF
