:020000040800F2
:1000000000500020CD1000080D1100080D1100084F
:100010000D1100080D1100080D110008000000006E
:100020000000000000000000000000000D110008AA
:100030000D110008000000000D1100080D1100084E
:10004000ED130008F1130008F5130008F913000878
:10005000FD13000801140008051400080914000825
:100060000D140008111400081514000819140008D4
:100070001D14000821140008251400082914000884
:100080002D14000831140008351400080D11000863
:100090000D1100080D1100080D1100083914000899
:1000A0003D140008411400084514000849140008D4
:1000B0004D14000851140008551400085914000884
:1000C0005D14000861140008651400086914000834
:1000D0006D140008711400087514000879140008E4
:1000E0007D14000881140008851400080000000039
:1000F0000000000000000000000000000000000000
:0C01000000000000000000005FF808F1A3
:100110000EB400B598B019AB04CB1992694682228F
:1001200092008A8100900490094A0292059201226D
:100130005242CA811793074A1068199A00F00CF8C6
:10014000009A0023137018B008BC03B018470000D1
:10015000FFFFFF7F2C000020F0B55F4656464D465E
:100160004446F0B4AFB002908A461E1C904600226E
:100170000492089200E0099E42461378002B09D0B1
:10018000252B07D0444601342378002B03D0252BA0
:1001900001D0F8E744464346E51A002D07D0404613
:1001A000291C524600F02CFB049A52190492002399
:1001B000E356002B00D1FEE20134A04600226B463C
:1001C000B7331A700392059201235B42069300E055
:1001D0001E1C4246127812061216934601239844BA
:1001E00000E005915B46203B582B00D930E29B0094
:1001F000C74A9B589F46C74A08928FE16A46B73262
:100200000023D356002BE4D120231370E1E7012310
:10021000039A1A430392DCE7331D36680596002ED5
:10022000D6DA724205921E1C0423039A1A430392E3
:10023000CFE72B226B46B7331A70CAE742461378D2
:10024000012290441B061B162A2B06D09B461A1C23
:10025000303A092A0DD900211AE0331D3668069676
:10026000002E04DA1E1C01235B420693B1E71E1C1C
:10027000AFE700218B005B185B00991842461278AB
:1002800012061216934601239844303A092AF1D9EE
:1002900000290691A6DA012252420692A2E78023A3
:1002A000039A1A43039294E700215B46303B8A008D
:1002B00052185200991843461B781B061B169B4682
:1002C00001229044303B092B8BD8EEE74023039A60
:1002D0001A4303927DE742460023D3566C2B06D186
:1002E000012398441023039A1A43039271E71023C1
:1002F000039A1A4303926CE71023039A1A4303925A
:1003000067E75B46432B02D0039AD20610D5002341
:100310000C930D933268029869463F310CAB00F0A4
:1003200025FB071C431C00D145E20436099606E074
:10033000321D099232686B463F331A700127002242
:100340006B46B7331A703F236B4499462DE2102356
:10035000039A1A430392039BDB0603D5321D0992CD
:1003600034680BE0039B5B0605D5321D09923368A8
:100370001B041C1402E0331D09933468002C01DBBC
:100380000121ECE064422D226B46B7331A70012143
:10039000E5E0039AD20605D5331D09933368049A24
:1003A0001A60E8E6039B5B0606D5321D09923368A6
:1003B0006A46128A1A80DEE6331D09933368049A6E
:1003C0001A60D8E61023039A1A430392039BDB06B4
:1003D00003D5321D0992346809E0039B5B0603D5FF
:1003E000321D0992348802E0331D099334680021DC
:1003F000B1E0321D099234680223039A1A43039232
:1004000078239B460221434A0892A4E0069C0022DE
:100410006B46B7331A70331D09933668B146002E08
:1004200000D1BFE15A46532A02D0039BDB0643D5D5
:100430004D460E9500230A930B93002C18DB0027E2
:1004400000250E9B5A59002A1FD0029869463F3159
:100450000AAB00F08BFA421C00D1ACE1C019A042FB
:1004600013DC0435844201D1271C0EE0071CE8E7A9
:100470000AAB0093029800210EAA002300F0DEFAD6
:10048000071C431C00D196E10E95002F00D1EEE031
:1004900000250A950B956C4667340AAB00930298C9
:1004A000211C0EAA3B1C00F0C9FA874200D082E151
:1004B000E555A1460795E0E0002C0CDB301C00213F
:1004C000221C00F0DFF9002800D1D3E0871BA742EF
:1004D00000DDCFE0CBE0301C00F018FA071C64E12F
:1004E0001023039A1A430392039BDB0603D5321DA4
:1004F0000992346809E0039B5B0603D5321D09921B
:10050000348802E0331D09933468012123E00000A0
:10051000702E000844300008AC4A0892039BDB06AA
:1005200003D5321D0992346809E0039B5B0603D5AD
:10053000321D0992348802E0331D09933468039A0E
:10054000D20707D5002C05D00223039A1A43039241
:10055000022100E0022100226B46B7331A70069B8D
:10056000002B03DB8023039A9A430392002C02D1D1
:10057000069B002B50D0012909D001290CD3022958
:100580003AD0069A0792924B9946192775E0092CA2
:100590001CD86D46673529E067226A4491460123DD
:1005A0005B4299440723234030334A461370E408E2
:1005B000002CF4D1039AD20743D5302B41D001232C
:1005C0005B42994430234A4613703AE06D466735E2
:1005D000013D201C0A2100F069FD30312970201CEA
:1005E0000A2100F035FC041C0928F1D8013DA94678
:1005F000231C30332B7024E067236B44994601227F
:10060000524291440F232340089A9B5C4A46137040
:100610002409002C15D0F2E7002903D067236B448E
:1006200099460EE0039AD20703D467236B44994698
:1006300007E030216A463F322723D15466226A44BC
:1006400091466B4667334A469F1A069B079314E010
:100650005A46002A00D1AEE069463F310A700022B6
:100660006B46B7331A700996894601279DE000232F
:10067000079302E0069F002207923E1C079B9F42C1
:1006800000DA1E1C6B46B7331B781B061B16002BAB
:1006900001D0013603E0039A920700D50236842385
:1006A000039D1D4012D1059B9C1B002C0EDD102CC0
:1006B00007DD48481021524600F0A2F8103C102CEB
:1006C000F7DC4448211C524600F09AF86846B730DF
:1006D0000023C356002B04D00121524600F090F8AD
:1006E0000CE0039A920709D568463D303023037029
:1006F0005B4643700221524600F082F8802D16D1ED
:10070000059A941B002C12DD102C0ADD314B1D1CA8
:100710001035281C1021524600F072F8103C102CA5
:10072000F7DC2C481030211C524600F069F8079B7A
:10073000DC1B002C12DD102C0ADD264B1D1C103595
:10074000281C1021524600F05BF8103C102CF7DCFE
:1007500020481030211C524600F052F84846391CFF
:10076000524600F04DF8039A520712D5059B9C1B88
:10077000002C0EDD102C07DD16481021524600F02B
:100780003FF8103C102CF7DC1248211C524600F0B8
:1007900037F8331C059A964200DA131C049AD218D3
:1007A0000492E8E40C4B994606273E1E00DA002628
:1007B000002207926FE704982FB03CBC9046994600
:1007C000A246AB46F0BC02BC084700005830000807
:1007D0006C300008D42F00088830000830B581B094
:1007E000041C0D1C131C054A1068211C2A1CFFF751
:1007F000B3FC01B030BC02BC084700002C00002054
:1008000070B5051C0C1C101C002A03D00E22835E40
:10081000013302D0002C14D11CE0828982239B007A
:100820001A42F7D00668002909D0311C221C2B7807
:100830000B7001310135013A002AF8D136190660F2
:1008400008E0287801350006001601F0BFFF013CE2
:10085000002CF6D170BC01BC0047000030B581B05F
:10086000041C00F053F8051C201C291C0022FFF773
:10087000C7FF0A2001F0AAFF281C01B030BC02BC4F
:100880000847C04610F0030F034670B4C9B210D039
:1008900002B303788B421ED0013A013005E0CAB1A1
:1008A00010F8014B013A8C4217D010F0030F0346A9
:1008B000F5D1032A13D86AB1187888420DD0013ACD
:1008C0005C1C04E014F8015B013A8D4203D0204621
:1008D000002AF7D1104670BC70471846FBE741EA82
:1008E000012646EA0646184653F8044B86EA0404F5
:1008F000A4F1013525EA040414F0803F03D1043A41
:100900001846032AEFD80346D5E700BF20F00301BD
:1009100010F00300C0F1000051F8043B00F1040C9A
:100920004FEACC0C6FF000021CBF22FA0CF213430A
:100930004FF0010C4CEA0C2C4CEA0C4CA3EB0C02D3
:1009400022EA030212EACC1204BF51F8043B04303D
:10095000F4D013F0FF0F1FBF013013F47F4F0130AD
:1009600013F47F0F18BF0130704700BF2DE9F0412D
:100970000C4686B0054690461E46B1B140F22013A3
:10098000C2F200031F6800F0CBF8009621464246F1
:1009900003462846B847B0F1FF3F03D10023336038
:1009A0008A232B6006B0BDE8F08140F22013C2F22A
:1009B00000031F6800F0B4F8009603A9224603461E
:1009C0002846B847E7E700BF2DE9F043074687B060
:1009D00088461546E8B140F22C0440F22013C2F2DA
:1009E0000003C2F200041E68D4F8009000F098F8EA
:1009F00000953946424603464846B047B0F1FF3FAE
:100A000004D1236800222A608A221A6007B0BDE858
:100A1000F08340F22C0440F22013C2F20003C2F231
:100A200000041E68D4F8008000F07AF8009503A94D
:100A30003A4603464046B047E0E700BF10B582B0F3
:100A4000049C00934FF0FF33019400F079F902B059
:100A500010BD00BF30B540F22C0483B0C2F20004D8
:100A60000D46014600922A4601934FF0FF3320685D
:100A700000F066F903B030BD034621B1FF2A04D867
:100A80000A7001207047084670478A224FF0FF30F5
:100A90001A6070472DE9F04140F22014C2F20004C0
:100AA00082B01E46054688461746246800F038F88E
:100AB000009641463A4603462846A04702B0BDE8A4
:100AC000F08100BF10B514463AB143F294011046CC
:100AD000C0F6000100F046F820B943F29000C0F6DD
:100AE000000010BD43F290012046C0F6000100F066
:100AF00039F820B943F29000C0F6000010BD43F26F
:100B000040012046C0F6000100F02CF843F29003AB
:100B1000C0F6000300280CBF1846002010BD00BF1F
:100B200040F22410C2F20000704700BF40F22413CC
:100B3000C2F20003186A704700487047480100205D
:100B400000207047004870476801002040F22C03E5
:100B50000A46C2F2000301461868B3E7004870472E
:100B60006801002080EA010212F0030F3AD110F070
:100B7000030220F0030021F0030150F804CB08BF6A
:100B800051F8043B0DD082F003024FEAC2026FF02D
:100B90007F4323FA02F251F8043B4CEA020C43EA89
:100BA000020300BFACF101329C4501BF22EA0C02F6
:100BB00012F0803F50F804CB51F8043BF2D04FEADA
:100BC0000C604FEA1C2C012828BFB0EB036F08BF54
:100BD0001B0AF4D003F0FF034FEA1060A0EB030000
:100BE000704700BF10F0030F0AD010F8012B11F866
:100BF000013B012A28BF9A42F4D0A2EB03007047C0
:100C00004DF8045D4DF8044D4FF0010242EA022216
:100C100042EA024201F0030C21F0030150F8044BB8
:100C200051F8045BBCF1020F26D04BD824F07F4C66
:100C3000BCEB152FA4EB020323EA04030DD113EA46
:100C4000C21308BF51F8045B0AD18CEA040CBCEB58
:100C5000056F0CD150F8044BE8E74FEA15255CE02E
:100C600033F07F4352D10D784FEA146C55E04FEAD0
:100C7000146C05F0FF0550E04FEA044CA4EB0203AE
:100C80004FEA1C4C23EA0403BCEB154F17D113EABF
:100C9000C21308BF51F8045B07D18CEA040CBCEB0B
:100CA000054F08D150F8044BE6E71B042ED10D8800
:100CB0004FEA144C31E04FEA05454FEA144C4FEA35
:100CC00015452AE004F0FF0CBCEB156FA4EB020302
:100CD00023EA04030DD113EAC21308BF51F8045BE1
:100CE0000AD18CEA040CBCEB052F0AD150F8044B56
:100CF000E8E74FEA156510E014F0FF0F06D051F851
:100D0000045B4FEA142C25F07F4506E04FF000000D
:100D10005DF8044B5DF8045B70470CF0FF0205F0D2
:100D2000FF00012828BF904204BF4FEA1C2C2D0A67
:100D3000F3D0A2EB00005DF8044B5DF8045B704754
:100D40002DE9F04F8DB09946079105900692179EB8
:100D5000002955D016991768002960D0C846B9F106
:100D6000000F40D0079D4FF0000809AC40F2201260
:100D7000C2F200020492049B3168726857F804AB17
:100D8000D3F800B003910292FFF7CAFE0096214605
:100D9000524603460598D847B0F1FF3F27D0169A30
:100DA00000EB08039A421AD3079961B1002806DDC7
:100DB0000022A15CA95401328242FAD1AD180699F1
:100DC0000A6804320A6057F8042C002A1ED01699CB
:100DD000994213D9B9F1010910D09846CBE7039A8B
:100DE000029B3260736040460DB0BDE8F08F0599FC
:100DF0008A2380460B6000233360F4E79846F2E7CD
:100E0000069A4FF0FF3317681693A7E7079909B1C1
:100E100006990A6003F1FF3800233360E3E7DDF849
:100E20005880E0E7F0B540F22C0483B0C2F2000431
:100E300007460E4620681546089C39460093324600
:100E40002B460194FFF77CFF03B0F0BD00000000CB
:100E50004A1E08BF7047C0F02481884240F21681C4
:100E6000114200F01781B0FA80F3B1FA81F2A2EBDF
:100E70000303C3F11F0304A202EB03134FF00002AC
:100E80009F4600BFAFF30080B0EBC17F00BF42EBD5
:100E9000020228BFA0EBC170B0EB817F00BF42EB24
:100EA000020228BFA0EB8170B0EB417F00BF42EB94
:100EB000020228BFA0EB4170B0EB017F00BF42EB04
:100EC000020228BFA0EB0170B0EBC16F00BF42EB84
:100ED000020228BFA0EBC160B0EB816F00BF42EB04
:100EE000020228BFA0EB8160B0EB416F00BF42EB74
:100EF000020228BFA0EB4160B0EB016F00BF42EBE4
:100F0000020228BFA0EB0160B0EBC15F00BF42EB63
:100F1000020228BFA0EBC150B0EB815F00BF42EBE3
:100F2000020228BFA0EB8150B0EB415F00BF42EB53
:100F3000020228BFA0EB4150B0EB015F00BF42EBC3
:100F4000020228BFA0EB0150B0EBC14F00BF42EB43
:100F5000020228BFA0EBC140B0EB814F00BF42EBC3
:100F6000020228BFA0EB8140B0EB414F00BF42EB33
:100F7000020228BFA0EB4140B0EB014F00BF42EBA3
:100F8000020228BFA0EB0140B0EBC13F00BF42EB23
:100F9000020228BFA0EBC130B0EB813F00BF42EBA3
:100FA000020228BFA0EB8130B0EB413F00BF42EB13
:100FB000020228BFA0EB4130B0EB013F00BF42EB83
:100FC000020228BFA0EB0130B0EBC12F00BF42EB03
:100FD000020228BFA0EBC120B0EB812F00BF42EB83
:100FE000020228BFA0EB8120B0EB412F00BF42EBF3
:100FF000020228BFA0EB4120B0EB012F00BF42EB63
:10100000020228BFA0EB0120B0EBC11F00BF42EBE2
:10101000020228BFA0EBC110B0EB811F00BF42EB62
:10102000020228BFA0EB8110B0EB411F00BF42EBD2
:10103000020228BFA0EB4110B0EB011F00BF42EB42
:10104000020228BFA0EB0110B0EBC10F00BF42EBC2
:10105000020228BFA0EBC100B0EB810F00BF42EB42
:10106000020228BFA0EB8100B0EB410F00BF42EBB2
:10107000020228BFA0EB4100B0EB010F00BF42EB22
:10108000020228BFA0EB0100104670470CBF0120F0
:1010900000207047B1FA81F2C2F11F0220FA02F07B
:1010A000704708B14FF0FF3000F00EB80029F8D0BB
:1010B0002DE90340FFF7CCFEBDE8064002FB00F33C
:1010C000A1EB0301704700BF704700BF002103E0A0
:1010D000094B5B58435004310848094B42189A4267
:1010E000F6D3084A02E0002342F8043B064B9A423A
:1010F000F9D300F0D7F87047A030000800000020B6
:10110000A0010020A00100203C020020FEE700001A
:1011100082B04FF000030193019B984207DD00BFAE
:10112000019B03F101030193019B8342F7DB02B0B2
:10113000704700BF70B588B04FF000704FF00101EC
:1011400000F09CFC4FF008004FF0010100F084FC1F
:101150004FF00100014600F07FFC4FF48073ADF8C2
:101160001C304FF048038DF81F304FF003058DF809
:101170001E504FF44064C4F20104204607A900F059
:101180002FFB4FF40073ADF81C304FF018038DF8AF
:101190001F308DF81E50204607A900F021FB4FF4A8
:1011A000EA104FF0010100F08DFB4FF01203ADF893
:1011B0001A304FF000048DF816408DF817404FF0AC
:1011C0000C038DF818304FF001058DF819508DF88B
:1011D00010408DF811408DF812408DF813508DF8A5
:1011E00014408DF8154004A800F04EF98DF8004029
:1011F0008DF801408DF802502646ADF80440ADF858
:101200000640ADF80840ADF80A40ADF80C408DF846
:101210000E50684600F0C0F940F2FC13C2F2000321
:101220004FF4E3721A605C605C721C729D724FF046
:101230006F02DA7208B070BD10B500F07BFB4FF0A2
:10124000020000F0BFFA4FF4802000F095FB00F0A0
:1012500065FC012825D100F1FF3000F0D9FB4FF4E7
:10126000806000F0E1FB4FF0000000F0E9FB4FF47C
:1012700080304FF4801100F0A5FB4FF0010000F02A
:10128000ADFB4FF03904204600F02EFC0028FAD0C8
:101290004FF0020000F0A8FB00F0B2FB0828FBD1E1
:1012A00010BDFEE7F0B587B0FFF7C6FF4FF00400B2
:1012B0004FF0010100F0D0FB4FF008004FF00101AA
:1012C00000F0CAFB4FF010004FF0010100F0C4FB2A
:1012D00001F03AF800F03AFEFFF72CFF4FF001035F
:1012E000ADF800304FF004038DF8033003F1FF3305
:1012F0008DF802304FF40060C4F20100694600F03E
:101300006FFA4FF000064FF40064C4F2010442F695
:10131000F477C0F6000740F2CC15C2F200054FF496
:101320004060C4F201004FF001010A4600F0C4FA27
:1013300020464FF0010100F0B5FA0128EFD106F187
:10134000010601A839463246FEF7E2FE01A8FFF782
:10135000DDFA03464FF005004FF0020101AA00F04C
:10136000DFFD4FF00000294600F0C8F901A843F264
:101370000C01C0F600012A68FEF7CAFE01A8FFF7BB
:10138000C5FA03464FF007004FF03C0101AA00F0F8
:10139000C7FD01A843F21C01C0F60001AA7AFEF7BE
:1013A000B7FE01A8FFF7B2FA03464FF007004FF06F
:1013B000280101AA00F0B4FD01A843F23001C0F6F3
:1013C0000001EA7AFEF7A4FE01A8FFF79FFA0346A0
:1013D0004FF007004FF0140101AA00F0A1FD48F200
:1013E000A060C0F20100FFF793FE98E7704700BFCE
:1013F000704700BF704700BF704700BF704700BF15
:10140000704700BF704700BF704700BF704700BF04
:10141000704700BF704700BF704700BF704700BFF4
:10142000704700BF704700BF704700BF704700BFE4
:10143000704700BF704700BF704700BF704700BFD4
:10144000704700BF704700BF704700BF704700BFC4
:10145000704700BF704700BF704700BF704700BFB4
:10146000704700BF704700BF704700BF704700BFA4
:10147000704700BF704700BF704700BF704700BF94
:10148000704700BF704700BF4FF4C843C4F2000369
:101490004FF001021A605B6813F0010F78D00378F7
:1014A00093424FF4C843C4F200031A680CBF42F0E1
:1014B000800222F080021A604378012B4FF4C84367
:1014C000C4F200031A680CBF42F0400222F040024E
:1014D0001A608378012B4FF4C843C4F200031A68E2
:1014E0000CBF42F0200222F020021A60C378012BC8
:1014F0004FF4C843C4F200031A680CBF42F0100254
:1015000022F010021A600379012B4FF4C843C4F291
:1015100000031A680CBF42F0080222F008021A60A9
:101520004379012B4FF4C843C4F200031A680CBF7F
:1015300042F0040222F004021A60C27983794FEA71
:10154000837343EA0263027A43EA0243427A43EA3C
:101550000252438903F1FF331A434FF4C843C4F2E4
:101560000003DA611A6822F001021A604FF4806306
:1015700003F1FF339BB2002BFAD14FF4C843C4F2FE
:1015800000035B6813F0010F14BF002001207047B7
:101590004FF00000704700BF70B403784FF00101B6
:1015A00001FA03F189B24FF4C843C4F20003D3F83F
:1015B000002242F00102C3F80022D3F81C426FEA75
:1015C000010202EA0404C3F81C428378E3B94FF431
:1015D000C843C4F20003D3F80C4202EA0404C3F87F
:1015E0000C4204784689C58845EA064504F148045A
:1015F00043F8345005780689848844EA064405F1A6
:10160000480503EBC5035C608378012B1CD14FF4C4
:10161000C843C4F20003D3F80C4241EA0404C3F8FF
:101620000C4204788688C58845EA064504F14804DA
:1016300043F8345005780689448944EA064405F1A4
:10164000480503EBC5035C60437853B94FF4C843C6
:10165000C4F20003D3F8044202EA0404C3F80442CB
:1016600009E04FF4C843C4F20003D3F8044241EA4E
:101670000404C3F80442838943B94FF4C843C4F255
:101680000003D3F814422240C3F814228389012BAB
:1016900001BF4FF4C843C4F20003D3F814220A4335
:1016A00008BFC3F81422837B012B01BF4FF4C8434A
:1016B000C4F20003D3F81C22114308BFC3F81C1264
:1016C0004FF4C843C4F20003D3F8002222F0010211
:1016D000C3F8002270BC704738B94FF4C843C4F255
:1016E00000034FF02002DA6070474FF4C843C4F2A1
:1016F00000034FF020021A61704700BF10B54FF48D
:10170000C843C4F2000300F11B024FEA02129B58C7
:1017100003F00403DBB20B7263B94FF4C843C4F2A5
:10172000000300F11B024FEA02129B584FEA535389
:101730000B600BE04FF4C843C4F2000300F11B023E
:101740004FEA02129B584FEAD3034B604FF4C84351
:10175000C4F2000300F11B044FEA04141A191C59C7
:1017600004F002044C72546804F00F048C72526846
:101770004FEA1222CA7403EB001303F5DC72D3F8AC
:10178000B841CC72D3F8B8414FEA14240C73D3F8A3
:10179000B8414FEA14444C73D3F8B8314FEA13639D
:1017A0008B735368CB7353684FEA13230B745368DE
:1017B0004FEA13434B7453684FEA13638B74FFF77C
:1017C0008BFF10BD4FF40053C4F202031A6802F0FD
:1017D00038021A601A6840EA02021A60704700BFB5
:1017E0002DE9F003CB7803F00F0513F0100F1CBFA9
:1017F0008B781D430B7833B3D0F800C04FF0000353
:101800004FF001064FF00F0806FA03F20C8802EAC7
:101810000404944211D14FEA830708FA07F92CEA2D
:10182000090C05FA07F74CEA070CCF78282F08BFF8
:10183000446102D0482F08BF026103F10103082B65
:10184000E2D1C0F800C00B88FF2B28D9D0F804C023
:101850004FF000034FF001064FF00F0803F10802AC
:1018600006FA02F20C8802EA0404944211D14FEA0B
:10187000830708FA07F92CEA090C05FA07F74CEA7E
:10188000070CCF78282F08BF4461CC78482C08BFBC
:10189000026103F10103082BE0D1C0F804C0BDE8E8
:1018A000F0037047836819420CBF00200120704785
:1018B000806880B2704700BF0AB101617047416122
:1018C000704700BF30B44FF00003C4F201035B68FF
:1018D00084B200F44012B2F5401F0AD123F07063C5
:1018E0004FF00002C4F20102556825F070655560A2
:1018F00010E010F4801F1DBFC0F30342032505FA5A
:1019000002F2420D04BF120104FA02F223EA0203BA
:1019100043F0706331B14FEA50504FEA001004FABF
:1019200000F423434FF00002C4F20102536030BCC4
:10193000704700BF4FF48053C4F202031A6842F0AC
:1019400001021A6059684FF00002CFF6FF0201EA67
:1019500002025A601A6822F0847222F480321A60FD
:101960001A6822F480221A605A6822F4FE025A6031
:101970004FF000029A6070474FF48053C4F20203A4
:101980001A6822F480321A601A6822F480221A60DF
:10199000B0F5803F03D0B0F5802F11D108E04FF4AF
:1019A0008053C4F202031A6842F480321A6070470E
:1019B0004FF48053C4F202031A6842F4A0221A6062
:1019C000704700BF4FF48053C4F202035A6822F4F8
:1019D0007C1240EA02020A435A6070474FF06003EB
:1019E000C4F24223186070474FF48053C4F20203DC
:1019F0005A6822F0030240EA02025A60704700BFB0
:101A00004FF48053C4F20203586800F00C00704792
:101A10004FF48053C4F202035A6822F0F00240EA05
:101A200002025A60704700BF4FF48053C4F20203B1
:101A30005A6822F4E06240EA02025A60704700BF2E
:101A40004FF48053C4F202035A6822F4605242EA0F
:101A5000C0025A60704700BF39B14FF48053C4F2DE
:101A600002039A691043986170474FF48053C4F29F
:101A700002039A6922EA00009861704739B14FF475
:101A80008053C4F20203DA691043D86170474FF4FF
:101A90008053C4F20203DA6922EA0000D861704779
:101AA00039B14FF48053C4F20203DA681043D860AE
:101AB00070474FF48053C4F20203DA6822EA000050
:101AC000D860704739B14FF48053C4F202031A69E9
:101AD0001043186170474FF48053C4F202031A692F
:101AE00022EA0000186170474FEA5013012B05D11C
:101AF0004FF48053C4F202031B6807E0022B4FF43B
:101B00008053C4F202030CBF1B6A5B6A00F01F0023
:101B100023FA00F000F00100704700BF10B582B05A
:101B20004FF0000301934FF031042046FFF7DCFF34
:101B3000019B03F10103019318B9019BB3F5A06F59
:101B4000F3D14FF03100FFF7CFFF003818BF01206D
:101B500002B010BD08B54FF44063C4F200039842D0
:101B600069D04FF44063C4F20003984210D84FF498
:101B70008063C4F20003984243D04FF40063C4F280
:101B8000000398424AD0B0F1804F40F087802CE0AB
:101B90004FF4A053C4F20003984266D04FF4A05310
:101BA000C4F20003984206D84FF48053C4F20003F5
:101BB000984273D14CE04FF43053C4F20103984281
:101BC00006D04FF45053C4F20103984266D159E055
:101BD0004FF400604FF00101FFF762FF4FF4006027
:101BE0004FF00001FFF75CFF08BD4FF00100014618
:101BF000FFF768FF4FF001004FF00001FFF762FFB1
:101C000008BD4FF002004FF00101FFF75BFF4FF0FE
:101C100002004FF00001FFF755FF08BD4FF0040030
:101C20004FF00101FFF74EFF4FF004004FF00001AD
:101C3000FFF748FF08BD4FF008004FF00101FFF724
:101C400041FF4FF008004FF00001FFF73BFF08BDD8
:101C50004FF010004FF00101FFF734FF4FF010007C
:101C60004FF00001FFF72EFF08BD4FF020004FF0AE
:101C70000101FFF727FF4FF020004FF00001FFF7B1
:101C800021FF08BD4FF400504FF00101FFF708FF9E
:101C90004FF400504FF00001FFF702FF08BD00BFF6
:101CA000038803F08F03038003889BB2CA88134321
:101CB0004A8813439BB203808B8883850B880385F6
:101CC0004FF0010383824FF43053C4F201034FF409
:101CD0005052C4F20102904214BF002201229842E5
:101CE00014BF134642F001030BB10B7A0386704711
:101CF00070B4038C23F010034FEA03434FEA1343FD
:101D00000384038C8488A4B2028B22F4E0424FEA5D
:101D100002424FEA12420D8842EA052292B223F0B3
:101D200020034FEA03434FEA13430D8943EA0513A7
:101D30004D8843EA05139BB2CD8805874FF4305593
:101D4000C4F201054FF45056C4F20106B04214BF6C
:101D500000260126A84214BF354646F00105CDB144
:101D60004FF67F7503EA05054B8945EA03154FF6E3
:101D7000BF7305EA03038D8843EA05139BB247F25C
:101D8000FF3504EA05058C8945EA8405CC8945EAD6
:101D90008404A4B284800283038470BC704700BFB3
:101DA0004FF0FF3383804FF000030380C3804380F4
:101DB000037270474FF00003038043808380C38029
:101DC000038143818381C381704700BF29B10388A8
:101DD0009BB243F0010303807047038823F00103A3
:101DE0004FEA83534FEA93530380704722B18389AC
:101DF0009BB219438181704783899BB223EA010119
:101E00008181704729B103889BB243F0800303802E
:101E10007047038823F080034FEA83534FEA9353BC
:101E200003807047838B23F400634FEA03434FEA38
:101E3000134343EA01239BB28383704700F180532D
:101E400003F5D8534FEA8303188880B2704700BF68
:101E50002DE9F04F83B0894690469B46DDF830A0CF
:101E6000127805464FF00004002A2ED005464FF0A8
:101E7000000440F2A017C2F2000740F20006C2F2CE
:101E80000006BAF1000F02D03B88798801E07B8818
:101E900039880091318801912846494600F084F93B
:101EA0003378C3EBC303ED18EDB204F10104E4B2DF
:101EB00018F8012F112C8CBF00230123002A0CBF1E
:101EC000002303F00103002BDBD1A34524D940F20A
:101ED000A016C2F2000640F20007C2F200074FF05F
:101EE0002008BAF1000F02D03388728801E07388AD
:101EF000328800923A88019228464946424600F0CC
:101F000053F93B8804F10104E4B2A34504D9C3EBBF
:101F1000C303ED18EDB2E4E703B0BDE8F08F00BFF6
:101F200010B582B04FF000040094FFF791FF02B0AB
:101F300010BD00BF40F2A013C2F200034FF0FF3209
:101F40001A804FF000025A80704700BF00B583B07E
:101F500000F0FAF940F22023C2F20003187800F0F2
:101F60000FFC40F22C23C2F200034FF062021A80F1
:101F700040F21823C2F200034FF003021A8040F22D
:101F80001023C2F200034FF00A021A8040F2282305
:101F9000C2F200034FF064021A6040F22423C2F23E
:101FA00000031A6040F21C23C2F200031A6040F2E0
:101FB0003023C2F200034FF0FF321A60FFF7BAFF7E
:101FC00040F2A013C2F200031B8800934FF0000000
:101FD00001464FF08402134600F078F903B000BDCB
:101FE000C368C9B203F47F4341EA0303C360704787
:101FF00008B589B2FFF760FC08BD00BF00B583B02B
:102000004FF0FF03ADF804304FF003038DF80630B6
:1020100020B94FF004038DF8073003E04FF01003B0
:102020008DF807304FF48050C4F2010001A9FFF78A
:10203000D7FB03B000BD00BF82B04FF0640303FBC9
:1020400000F30193019B33B1019B03F1FF33019333
:10205000019B002BF8D102B0704700BF38B5054690
:102060004FF48054C4F2010420464FF480714FF0C5
:102070000002FFF7BDFF20464FF400714FF0010250
:10208000FFF7B6FF4FF4A050C4F201004FF0040177
:102090004FF00002FFF7ACFF20464FF480614FF095
:1020A0000002FFF7A5FF20462946FFF799FF2046CB
:1020B0004FF480614FF00102FFF79AFF38BD00BF77
:1020C00038B505464FF48054C4F2010420464FF45D
:1020D00080714FF00102FFF78BFF20464FF4007133
:1020E0004FF00102FFF784FF4FF4A050C4F201004B
:1020F0004FF004014FF00002FFF77AFF20464FF443
:1021000080614FF00002FFF773FF20462946FFF77A
:1021100067FF20464FF480614FF00102FFF768FF30
:1021200038BD00BF2DE9F84380460E4691461F4654
:102130004FF02A00FFF792FFF6B240F20804C2F215
:10214000000440F22025C2F200052B7804EB830343
:1021500058683018C0B2FFF7B3FF2B7804EB830345
:102160005B6803F1FF33F618F719F8B2FFF7A8FF21
:102170004FF02B00FFF772FF5FFA88F62B7804EB25
:10218000830358693018C0B2FFF79AFF2B7804EB2D
:1021900083046369F61806F1FF36B1445FFA89F0EB
:1021A000FFF78EFFBDE8F8832DE9F04F87B01646A4
:1021B0001D46BDF840B0BDF8443004934FF007020F
:1021C00002FB03F24FF00E0404FB03F312B21BB246
:1021D000FFF7A8FF4FF02C00FFF740FF4FEA15284C
:1021E0004FEA1B29384B04FB06364FF000070597D2
:1021F0005FFA8BFBEDB201955FE033781D4214BFAF
:1022000001985846FFF75CFF387805EA000000287F
:1022100014BF50464846FFF753FF04F101044445FC
:10222000EBDB4FEA6505029B013B02931ED04FF0AA
:1022300000043746E1E773781D4214BF0198584601
:10224000FFF73EFF787805EA0000002814BF5046EB
:102250004846FFF735FF04F101044445EBDB4FEA44
:102260006505029F013F029707D10AE047464FF0FC
:10227000060302934FF08005B8464FF0000437463E
:10228000D9E74746D046039B03F101030393BB42C2
:1022900003DB0AE04FF0000303934FF008030293BF
:1022A0004FF08005C246B846C1E7059F07F1010718
:1022B000059706F10206072F03D0049F002FE9D1EE
:1022C000F3E707B0BDE8F08F7C2700082DE9F04761
:1022D00091461D46BDF8207000B209B212B21BB281
:1022E000FFF720FF4FF02C00FFF7B8FEB9F1000F09
:1022F0001BD04FEA17264FF00008C246FFB211E08C
:1023000054463846FFF7DCFE3046FFF7D9FE04F1AD
:102310000104E4B2A542F4D808F101085FFA88F894
:10232000C14502D9002DEBD1F6E7BDE8F08700BF2B
:10233000B0F5805F40F20803C2F200032EBF1860C0
:102340004FF400421A6070472DE9F04782B04FF019
:102350000300FFF773FDFFF7EBFF4FF010004FF0A6
:102360000101FFF779FB4FF010004FF00101FFF77B
:1023700073FB4FF020004FF00101FFF76DFB4FF0B2
:1023800010004FF00101FFF767FB4FF008004FF01E
:102390000101FFF761FB4FF08003ADF804304FF00F
:1023A000180A8DF807A04FF003098DF806904FF436
:1023B0004060C4F2010001A9FFF712FA4FF00400D7
:1023C0004FF00101FFF75AFB4FF40065C4F200051E
:1023D0002846FFF7BFFB40F2AC14C2F2000404F140
:1023E00014073846FFF7DCFC04F104084046FFF709
:1023F000E1FC4FF0FF3323834FF00006A682668393
:10240000E68228463946FFF74BFC4FF06003A38075
:102410004FF00107E78040F20803C2F200031B8877
:10242000638128464146FFF763FC28463146FFF7A3
:10243000F9FC28463946FFF7E5FC28464FF0040131
:102440003A46FFF7D3FC28463946FFF7BFFC4FF466
:10245000B853ADF804308DF806904FF010058DF8A4
:1024600007504FF48054C4F20104204601A9FFF73D
:10247000B7F94FF00408ADF804808DF806908DF898
:1024800007504FF4A055C4F2010528460DEB080192
:10249000FFF7A6F920464FF480713A46FFF7A8FDF2
:1024A00020464FF400713A46FFF7A2FD2846414608
:1024B0003A46FFF79DFD20464FF480613A46FFF70C
:1024C00097FD20464FF480513246FFF791FD20469C
:1024D0004FF480513A46FFF78BFD20464FF4805170
:1024E0003246FFF785FD4FF4A060FFF7A5FD2046BB
:1024F0004FF480513A46FFF77BFD4FF4A060FFF7A1
:102500009BFD3846FFF77AFD4046FFF7A7FD3046B2
:10251000FFF774FD20464FF480713246FFF768FDE7
:1025200020464FF400713246FFF762FD28464146CF
:102530003246FFF75DFD20464FF480613A46FFF7D3
:1025400057FD2046FFF7B4F920464FF400713A4694
:10255000FFF74EFD20464FF400713246FFF748FD6D
:102560002046FFF7A5F920464FF400713A46FFF7E1
:102570003FFD20464FF400713246FFF739FD2046FB
:10258000FFF796F920464FF400713A46FFF730FD09
:1025900020464FF400713246FFF72AFD2046FFF730
:1025A00087F93846FFF72AFD3846FFF757FD4FF009
:1025B000D700FFF753FD4FF0BF00FFF781FD4FF04D
:1025C000E000FFF74BFD3046FFF77AFD4FF0E300E8
:1025D000FFF744FD4FF0E100FFF740FD4FF028000A
:1025E000FFF73CFD4FF01100FFF738FD4FF0C00042
:1025F000FFF734FD4FF0FB00FFF762FD3046FFF7B9
:102600005FFD4FF0C300FFF729FD3046FFF758FD8F
:102610004FF0C400FFF722FD4FF00500FFF750FD1B
:102620004FF0C500FFF71AFD4FF01100FFF748FD0E
:102630004FF0CB00FFF712FD3846FFF741FD4FF09A
:10264000CC00FFF70BFD3046FFF73AFD4FF0CE0010
:10265000FFF704FD3046FFF733FD4FF0B700FFF7FB
:10266000FDFC4FF0C000FFF72BFD4FF0D000FFF74F
:10267000F5FC4FF01D00FFF723FD4FF0B400FFF70E
:10268000EDFC5046FFF71CFD4FF02000FFF7E6FC85
:102690004FF02A00FFF7E2FC4046FFF711FD4FF034
:1026A0008300FFF70DFD4FF02B00FFF7D7FC4046EE
:1026B000FFF706FD4FF08300FFF702FD4FF03A00F1
:1026C000FFF7CCFC4FF00500FFF7FAFC4FF03600A7
:1026D000FFF7C4FC4FF09000FFF7F2FC4FF0B000A2
:1026E000FFF7BCFC4FF07F00FFF7EAFC4FF029003A
:1026F000FFF7B4FC4FF0F900FFF7B0FC3046FFF7EE
:10270000DFFC4846FFF7DCFC4FF00500FFF7D8FC84
:102710004FF00700FFF7D4FC4FF00900FFF7D0FCA3
:102720004FF00B00FFF7CCFC4FF00D00FFF7C8FC9B
:102730004FF00F00FFF7C4FC4FF01100FFF7C0FC93
:102740004FF01300FFF7BCFC4FF01500FFF7B8FC8B
:102750004FF01700FFF7B4FC4FF01900FFF7B0FC83
:102760004FF01B00FFF7ACFC4FF01D00FFF7A8FC7B
:102770004FF01F00FFF7A4FC02B0BDE8F08700BFD8
:1027800010B5044640F22023C2F2000318704FF047
:102790003600FFF763FC022C08D0032C0BD0012C71
:1027A0000ED14FF05000FFF78BFC10BD4FF0F00042
:1027B000FFF786FC10BD4FF09000FFF781FC10BDC5
:1027C0004FF03000FFF77CFC10BD00BF43F60C0358
:1027D000C4F201031A88F0B412F4005212D00A288D
:1027E00051D043F60002C4F20102B2F800C01CF05E
:1027F000800FFAD043F6040380B2C4F201031880BC
:10280000F0BC704741F21804C4F20204266840F696
:10281000040146F0040727602568C4F2010145F071
:1028200001062660276843F6100647F480452560B8
:102830000F6843F6140527F0F0040C600F6843F6A8
:10284000080447F0B0070F600F684FF00C0C27F436
:1028500070670F600F68C4F2010647F480670F606D
:10286000C4F2010540F24131C4F201043280A3F800
:1028700000C02A8021801A880A281FFA82FC4CF4A2
:1028800000511980ADD143F60C03C4F201031A883C
:1028900012F400520FD043F60002C4F20102138872
:1028A00013F0800FFBD043F60401C4F201014FF096
:1028B0000D020A8095E741F21804C4F2020426686A
:1028C00040F6040146F0040727602568C4F20101C0
:1028D00045F001062660276843F6100647F4804558
:1028E00025600F6843F6140527F0F0040C600F68AC
:1028F00043F6080447F0B0070F600F6840F2413C10
:1029000027F470670F600F68C4F2010647F4806710
:102910000F60C4F201054FF00C01C4F201043280D3
:1029200019802A80A4F800C01A8891B241F4005C92
:10293000A3F800C0AFE700BF101C70470000000004
:102940000000000000000000000000000000000087
:1029500013E0000000000000000000E00020000084
:1029600000E000200000000035000F8035600F807F
:102970000560000000000D800A403A60064000003B
:1029800000000000024002A00A40150009000000FB
:1029900000000C00130014800880140000000000E8
:1029A0000000000001E00000000000000000000046
:1029B00000001F80606000000000000000006060F8
:1029C0001F8000000000000000000040034000E005
:1029D0000340004000000200020002001FC002008D
:1029E0000200020000000000600038000800000043
:1029F00000000000020002000200020002000000CD
:102A00000000000018001800000000000000000096
:102A100020001800060001800060000000000FC0C8
:102A20001020102010200FC0000000001000102007
:102A30001FE01000100000000000184014201220B9
:102A4000112018C0000000000840102011201120A3
:102A50000EC0000000000600050004C014201FE0A6
:102A600014000000080011E0112011200E200000C9
:102A700000000F801140112011200E2000000000E6
:102A8000006000201820072000E0000000000EC0B9
:102A90001120112011200EC00000000011C01220D2
:102AA00012200A2007C000000000000019801980D1
:102AB00000000000000000000000300019800980C4
:102AC00000000000020005000500088010401040D2
:102AD00000000000050005000500050005000000DD
:102AE00010401040088005000500020000000000B2
:102AF00000001080144002400180000000001FE030
:102B000020102310249017E0000010001C0017A0D4
:102B1000046017801C00100010201FE011201120FD
:102B200011200EC0000000000FC010201020102047
:102B30000860000010201FE01020102008400780CF
:102B4000000010201FE0112013A0102018600000CA
:102B5000000010201FE0112003A0002000600000F2
:102B60000FC01020102012200E60020010201FE065
:102B70001120010011201FE0102000001020102063
:102B80001FE010201020000000000E001020102078
:102B90000FE00020000010201FE01220030004A01E
:102BA00018601020000010201FE0102010001C00F2
:102BB000000010201FE010E0030010E01FE01020D4
:102BC00010201FE010E0070018201FE00020000088
:102BD0000FC01020102010200FC000000000102097
:102BE0001FE01220022001C0000000000FC01020D2
:102BF000302030202FC0000010201FE012200220C3
:102C0000062009C01000000018C009201120114042
:102C10000E6000000060002010201FE01020002047
:102C2000006000200FE01020100010200FE00020B6
:102C3000002000E007201800072000E0002000200E
:102C40000FE010200F0010200FE00020102018606F
:102C5000048003000480186010200020006011A090
:102C60001E0011A000600020000018601420132036
:102C700010A018600000000000007FE0402040200D
:102C8000000000000000002001C006003800000025
:102C9000000000000000402040207FE00000000015
:102CA0000000010000800060008001000000800042
:102CB0008000800080008000800080000000000014
:102CC0000000002000400000000000000D00128005
:102CD000128012801F00100010201FE011001080D1
:102CE00010800F00000000000F0010801080108086
:102CF0000980000000000F001080108011201FE0EC
:102D0000100000000F0012801280128013000000DB
:102D1000000010801FC010A010A010A00000000034
:102D20000F005080508051003F80008010201FE035
:102D30001100008010801F00100000001080108023
:102D40001FA010001000000000004080408040A044
:102D50003F800000000010201FE002001680198054
:102D6000108000000000100010201FE01000100074
:102D7000000010801F8010801F0010801F001000B6
:102D800010801F801100008010801F0010000000C4
:102D90000F001080108010800F00000040807F80A6
:102DA0005100108010800F00000000000F00108004
:102DB000108051007F804080000010801F80110033
:102DC0001080108000000000190012801280128014
:102DD0000D800000000000800FC010801080108067
:102DE000080000800F801000100008801F80100075
:102DF000008003800C8010000C8003800080008025
:102E00000F8010800E0010800F80008010801980CD
:102E10000600060019801080000000804180468076
:102E200078004C800380008000001980148012809C
:102E30001180188000000000000004003BC040200A
:102E4000000000000000000000003FE00000000063
:102E500000000000000040203BC004000000000013
:102E60000000040002000400040002000000000052
:102E7000FC01000850060008500600080E02000879
:102E800050060008500600085006000850060008CA
:102E90005006000850060008180200083202000818
:102EA00050060008280200083C02000850060008EE
:102EB0009E020008A8020008A8020008A802000854
:102EC000A8020008A8020008A8020008A80200083A
:102ED000A8020008A80200085006000850060008D2
:102EE000500600085006000850060008500600086A
:102EF00050060008500600085006000802030008AB
:102F00004E0300085006000850060008500600084E
:102F10005006000850060008500600085006000839
:102F2000500600085006000850060008C4030008B8
:102F30005006000850060008500600080C0400085F
:102F400050060008E004000850060008500600087B
:102F50001805000850060008500600085006000832
:102F600050060008500600085006000850060008E9
:102F7000500600085006000850060008020300082A
:102F800056030008500600085006000850060008C6
:102F9000CC0200085603000850060008500600083E
:102FA000D60200085006000892030008CC0300086F
:102FB000F2030008F8020008500600080C0400089C
:102FC00050060008E80400085006000850060008F3
:102FD000F601000820202020202020202020202072
:102FE0002020202030303030303030303030303021
:102FF00030303030656E74726F75202564207665D0
:103000007A657320202020200000000049443A20E7
:1030100025642020202020202020000054414D4104
:103020004E484F3A202564202020202020202000D8
:10303000444154413A202564202020202020202093
:1030400000000000303132333435363738396162B0
:103050006364656600000000303132333435363742
:1030600038394142434445460000000062756720FC
:10307000696E2076667072696E74663A2062616469
:103080002062617365000000286E756C6C29000079
:1030900043000000504F5349580000002E0000002C
:1030A0000100030301000000008000000000000098
:1030B0000000000004000000040000000400000004
:1030C00000000000000000000400000030000020AC
:1030D00000000000000000000000000000000000F0
:1030E00000000000000000000000000000000000E0
:1030F0009030000800000000000000000000000008
:1031000000000000000000000000000000000000BF
:1031100000000000000000000000000000000000AF
:10312000000000000000000000000000000000009F
:10313000000000000000000000000000000000008F
:10314000000000000000000000000000000000007F
:10315000000000000000000000000000000000006F
:10316000000000000000000000000000000000005F
:10317000000000000000000000000000000000004F
:10318000000000000000000000000000000000003F
:10319000000000000000000000000000000000002F
:1031A000000000000000000000000000000000001F
:1031B000000000000000000000000000000000000F
:1031C000790A00084153434949000000000000000B
:1031D00000000000000000000000000000000000EF
:1031E0000000000001000000415343494900000075
:1031F00000000000000000000000000000000000CF
:1032000000000000000000009C3000084030000872
:1032100040300008403000084030000840300008CE
:1032200040300008403000084030000840300008BE
:10323000FFFFFFFFFFFFFFFFFFFFFFFFFFFF00009C
:0400000508000110DE
:00000001FF
