:020000040800F2
:10000000005000200D0100084D0100084D010008BE
:100010004D0100084D0100084D01000800000000DE
:100020000000000000000000000000004D0100087A
:100030004D010008000000004D0100084D010008BE
:10004000DD020008E1020008E5020008E9020008FC
:10005000ED020008F1020008F5020008F9020008AC
:10006000FD02000801030008050300080903000859
:100070000D03000811030008150300081903000808
:100080001D03000821030008250300084D01000896
:100090004D0100084D0100084D010008290300082A
:1000A0002D03000831030008350300083903000858
:1000B0003D03000841030008450300084903000808
:1000C0004D030008510300085503000859030008B8
:1000D0005D03000861030008650300086903000868
:1000E0006D0300087103000875030008000000009C
:1000F0000000000000000000000000000000000000
:0C01000000000000000000005FF808F1A3
:10010C00002103E0094B5B58435004310848094B6C
:10011C0042189A42F6D3084A02E0002342F8043B04
:10012C00064B9A42F9D300F09BF870477008000810
:10013C0000000020000000200000002044000020EF
:10014C00FEE7000082B04FF000030193019B984240
:10015C0007DD00BF019B03F101030193019B834267
:10016C00F7DB02B0704700BF70B588B04FF000707D
:10017C004FF0010100F064FB4FF008004FF001015B
:10018C0000F04CFB4FF00100014600F047FB4FF430
:10019C008073ADF81C304FF048038DF81F304FF4CE
:1001AC004064C4F20104204607A900F09DFA4FF404
:1001BC000073ADF81C304FF018038DF81F3020463B
:1001CC0007A900F091FA4FF4EA104FF0010100F08A
:1001DC00EDFA4FF01203ADF81A304FF000048DF821
:1001EC0016408DF817404FF00C038DF818304FF077
:1001FC0001058DF819508DF810408DF811408DF8CF
:10020C0012408DF813508DF814408DF8154004A849
:10021C0000F0ACF88DF800408DF801408DF80250DC
:10022C002646ADF80440ADF80640ADF80840ADF8F0
:10023C000A40ADF80C408DF80E50684600F01EF9DF
:10024C0040F21C03C2F200034FF0EC021A605C6037
:10025C005C721C729D724FF0A502DA7208B070BD10
:10026C0030B583B04FF004004FF0010100F0D6FA26
:10027C004FF008004FF0010100F0D0FA4FF01000E1
:10028C004FF0010100F0CAFAFFF76EFF4FF00103C7
:10029C00ADF804304FF004038DF8073003F1FF3351
:1002AC008DF806304FF40060C4F2010001A900F093
:1002BC001BFA40F21C04C2F200044AF22015C0F2F0
:1002CC000705204600F07AF92846FFF73BFFF8E7D0
:1002DC00704700BF704700BF704700BF704700BF3A
:1002EC00704700BF704700BF704700BF704700BF2A
:1002FC00704700BF704700BF704700BF704700BF1A
:10030C00704700BF704700BF704700BF704700BF09
:10031C00704700BF704700BF704700BF704700BFF9
:10032C00704700BF704700BF704700BF704700BFE9
:10033C00704700BF704700BF704700BF704700BFD9
:10034C00704700BF704700BF704700BF704700BFC9
:10035C00704700BF704700BF704700BF704700BFB9
:10036C00704700BF704700BF704700BF4FF4C843D1
:10037C00C4F200034FF001021A605B6813F0010F26
:10038C0078D0037893424FF4C843C4F200031A6840
:10039C000CBF42F0800222F080021A604378012BDD
:1003AC004FF4C843C4F200031A680CBF42F0400279
:1003BC0022F040021A608378012B4FF4C843C4F238
:1003CC0000031A680CBF42F0200222F020021A60CF
:1003DC00C378012B4FF4C843C4F200031A680CBF56
:1003EC0042F0100222F010021A600379012B4FF434
:1003FC00C843C4F200031A680CBF42F0080222F092
:10040C0008021A604379012B4FF4C843C4F200036D
:10041C001A680CBF42F0040222F004021A60C2797E
:10042C0083794FEA837343EA0263027A43EA024315
:10043C00427A43EA0252438903F1FF331A434FF4E1
:10044C00C843C4F20003DA611A6822F001021A6090
:10045C004FF4806303F1FF339BB2002BFAD14FF4BE
:10046C00C843C4F200035B6813F0010F14BF0020F3
:10047C00012070474FF00000704700BF70B4037844
:10048C004FF0010101FA03F189B24FF4C843C4F2F1
:10049C000003D3F8002242F00102C3F80022D3F883
:1004AC001C426FEA010202EA0404C3F81C4283787E
:1004BC00E3B94FF4C843C4F20003D3F80C4202EA88
:1004CC000404C3F80C4204784689C58845EA0645FD
:1004DC0004F1480443F8345005780689848844EACA
:1004EC00064405F1480503EBC5035C608378012BDA
:1004FC001CD14FF4C843C4F20003D3F80C4241EAB8
:10050C000404C3F80C4204788688C58845EA06457D
:10051C0004F1480443F8345005780689448944EAC8
:10052C00064405F1480503EBC5035C60437853B9F9
:10053C004FF4C843C4F20003D3F8044202EA0404A3
:10054C00C3F8044209E04FF4C843C4F20003D3F8E3
:10055C00044241EA0404C3F80442838943B94FF4CA
:10056C00C843C4F20003D3F814422240C3F8142247
:10057C008389012B01BF4FF4C843C4F20003D3F8A5
:10058C0014220A4308BFC3F81422837B012B01BF3A
:10059C004FF4C843C4F20003D3F81C22114308BF24
:1005AC00C3F81C124FF4C843C4F20003D3F8002262
:1005BC0022F00102C3F8002270BC7047F0B403466D
:1005CC004FF4C842C4F20002926812F0806F18BF58
:1005DC00002014D14FF4C842C4F20002926812F009
:1005EC00006F0AD14FF4C842C4F20002926812F0B4
:1005FC00805F18BF022072D001E04FF00100054669
:10060C004FF4C842C4F2000200F118014FEA011184
:10061C00545804F001045450197A99B91C684FEAE3
:10062C0044541C604FF4C842C4F2000200F118019B
:10063C004FEA011156585F7A47EA060646EA040467
:10064C00545014E05E684FEAC6065E604FF4C84230
:10065C00C4F2000200F118044FEA0414175993F87D
:10066C0009C041EA0C01394341EA060616519A7A4F
:10067C0002F00F029A724FF4C842C4F2000205F164
:10068C0018044FEA041411194E6826F00F064E6038
:10069C004E689F7A47EA06064E60997B5E7B4FEA6E
:1006AC00064646EA0166D97A0E43197B46EA0126CC
:1006BC0002EB051101F5C475C1F888619E7C597C6B
:1006CC004FEA014141EA0661DE7B31431B7C41EA82
:1006DC0003236B60135943F00103135101E04FF0F6
:1006EC000400F0BC704700BF2DE9F003CB7803F099
:1006FC000F0513F0100F1CBF8B781D430B7833B311
:10070C00D0F800C04FF000034FF001064FF00F0877
:10071C0006FA03F20C8802EA0404944211D14FEA5F
:10072C00830708FA07F92CEA090C05FA07F74CEAD3
:10073C00070CCF78282F08BF446102D0482F08BF80
:10074C00026103F10103082BE2D1C0F800C00B8851
:10075C00FF2B28D9D0F804C04FF000034FF001064E
:10076C004FF00F0803F1080206FA02F20C8802EAB5
:10077C000404944211D14FEA830708FA07F92CEAD2
:10078C00090C05FA07F74CEA070CCF78282F08BF9D
:10079C004461CC78482C08BF026103F10103082B9B
:1007AC00E0D1C0F804C0BDE8F003704730B44FF09E
:1007BC000003C4F201035B6884B200F44012B2F58A
:1007CC00401F0AD123F070634FF00002C4F2010203
:1007DC00556825F07065556010E010F4801F1DBF42
:1007EC00C0F30342032505FA02F2420D04BF1201C5
:1007FC0004FA02F223EA020343F0706331B14FEAC8
:10080C0050504FEA001004FA00F423434FF000025A
:10081C00C4F20102536030BC704700BF39B14FF4D1
:10082C008053C4F202039A691043986170474FF4E5
:10083C008053C4F202039A6922EA0000986170475F
:10084C0039B14FF48053C4F20203DA691043D86112
:10085C0070474FF48053C4F20203DA6922EA0000B5
:04086C00D861704798
:040000050800010CE2
:00000001FF
