:020000040800F2
:1000000048040020C10100084F1A00081B05000821
:100010004D1A0008090200087523000800000000BE
:10002000000000000000000000000000F71F0008B2
:10003000FD02000800000000511A0008C920000855
:10004000DB010008DB010008DB010008DB01000820
:10005000DB010008DB010008DB010008DB01000810
:10006000DB010008DB010008DB010008DB01000800
:10007000DB010008DB010008DB010008DB010008F0
:10008000DB010008DB010008DB010008DB010008E0
:10009000DB010008DB010008DB010008DB010008D0
:1000A000DB010008DB010008DB010008DB010008C0
:1000B000DB010008DB010008DB010008DB010008B0
:1000C000DB010008DB010008DB010008DB010008A0
:1000D000DB010008DB010008DB010008DB01000890
:1000E000DB010008DB010008DB010008DB01000880
:1000F000DB010008DB010008DB010008DB01000870
:10010000DB010008DB010008DB010008DB0100085F
:10011000DB010008DB010008DB010008DB0100084F
:10012000DB010008DB010008DB010008DB0100083F
:10013000DB010008DB010008DB010008DB0100082F
:10014000DB010008DB010008DB010008DB0100081F
:10015000DB010008DB010008DB010008DB0100080F
:10016000DB010008DB010008DB010008DB010008FF
:10017000DB010008DB010008DB010008DB010008EF
:10018000DB010008DB010008DB010008DB010008DF
:10019000DB010008DB010008DB010008DB010008CF
:1001A000DB010008DB010008DB010008DFF80CD0F0
:1001B00000F018F800480047C52300084804002054
:1001C0000648804706480047FEE7FEE7FEE7FEE7F1
:1001D000FEE7FEE7FEE7FEE7FEE7FEE7CD200008CC
:1001E000AD010008064C074D06E0E06840F0010351
:1001F00094E8070098471034AC42F6D3FFF7DAFFD3
:10020000983C0008B83C0008FEE710B50121CC0579
:10021000204601F02BFC2046BDE81040002101F0F3
:1002200025BC0000034A0146002052680A4200D063
:100230000120704700B0024030B52A4900240A6806
:10024000294B1A400A600A6803681A430A604A6B1D
:1002500022F007024A634A6B43681A434A634268C2
:1002600042B3012A2DD0022A30D0032AC26832D0EC
:1002700013010269446912022403856822431D4365
:1002800015438A6B15438D638269CA630A6C6FF3E9
:100290000D020A640A6CC3691A430A64828C4B6CAF
:1002A00003F040434B644B6C006A034343EA024350
:1002B0004B6430BDC268047D1302028A1204240616
:1002C000DBE7C2681302028A1204D6E7C268530150
:1002D0000269D202D1E75301026944699202E40340
:1002E000CBE7000000B00240FCE0FCFF02480168E0
:1002F00041F001010160704700B0024070470023E7
:100300004FF0204210280AD0B0F5807F09D0B0F518
:10031000805F09D0D2F85801814309D107E0506EBF
:10032000FAE7D2F88400F7E7D2F8A400F4E7012353
:1003300018467047D0E90012114382686FF01F031E
:10034000C06803EB421242EA402001434FF02040D4
:10035000C0F8501170470000F0B5D0E90112114308
:10036000D0E903231A4311434269C36911438269E7
:10037000056A11431943446A2943066821434FF033
:10038000204286B32B432343C2F8403103689B00CD
:10039000A3F1C043C3F840116FF00F0425012603F9
:1003A0000168230419B3876AD7E9001C04EB0C1415
:1003B000491E2143BC6805EB042421433C8ABD8AC5
:1003C00006EB04442143FC6803EB05532403A4F526
:1003D00080541C43C2F8484100688000A0F1C0402E
:1003E000C0F84811F0BDFFE7C2F84011D4E7816AB8
:1003F000D1E9000704EB0714401E20438C6805EB8D
:10040000042420430A4DCC6805EB043420430C8AB5
:1004100006EB044420438C8A097E03EB0453184303
:100420002B0303EB01610843C2F84801DAE700003F
:1004300000F0FFFF4FF02041D1F8542142EA400084
:10044000C1F854017047F0B50023012403270D685B
:1004500004FA03F21540954242D1D0F800C05E0084
:1004600007FA06F52CEA050CC0F800C091F804C0A4
:10047000D0F800E00CFA06FC4CEA0E0CC0F800C004
:1004800091F804C0BCF1010F02D0BCF1020F1FD1E2
:10049000D0F808C02CEA050CC0F808C091F805C0D7
:1004A000D0F808E00CFA06FC4CEA0E0CC0F808C0C4
:1004B000D0F804C02CEA020CC0F804C0426891F8DD
:1004C00006C00CFA03FC1FFA8CFC42EA0C024260E4
:1004D000C268AA43C260CA79C568B2402A43C260F2
:1004E0005B1C102BB3D3F0BD4B07DB0E9A40C90841
:1004F00010B500EB8100016A0F249C40A14301620A
:10050000016A1143016210BD418370470183704746
:100510000AB10183704741837047FEE700290188D3
:1005200002D041F4806101E021F4806101807047D4
:100530000029018802D041F0010101E021F0010110
:10054000018070470D4910B5884202D101214C0548
:100550000AE00B49884202D101218C0504E00949D7
:1005600088420AD10121CC05204601F0A3FA204699
:10057000BDE81040002101F09DBA10BD00540040BC
:1005800000580040005C00400029018802D041F47E
:10059000807101E021F48071018070470029018899
:1005A00002D041F4007101E021F400710180704734
:1005B0000CB50246002000920A0F21F07F41019203
:1005C00002D0009A143202E0009A090C183200920C
:1005D00012680A4200D001200CBD00007FB504461D
:1005E00080880D4620F03F06684601F087FA2749CB
:1005F0000298B0FBF1F189B20E43A680228822F066
:1006000001022280224B2A689A421BD85200B0FB7A
:10061000F2F080B2042800D20420491C2184A08377
:10062000208840F00100208021884FF6F5300140FD
:10063000A8886A89104308432080A889298908432B
:1006400020817FBDEB88A3F53F46FF3E0BD002EB38
:10065000C20303EB0212B0FBF2F080B240F4804020
:10066000020506D007E002EB4202B0FBF2F080B2D6
:10067000F6E740F001004FF4967251434FF47A725E
:10068000B1FBF2F140F40040C7E7000040420F0028
:10069000A0860100B1F5006F018803D021F400614C
:1006A0000180704741F40061FAE700002DE9F05F36
:1006B000DFF86C818346002401214046FFF764FF88
:1006C000584D4FF44057584E2F6004E02868401EA4
:1006D0002860401C77D031464046FFF769FF00286C
:1006E000F4D000228221C246404600F05CF9B946AF
:1006F0002F604D4FA8467F1C554606E0D8F80010E5
:10070000491EC8F80010491C5DD039462846FFF73D
:100710004FFF0028F2D0DFF808A10AF1180ABAF852
:100720000000C8F8009006E0D8F80010491EC8F88C
:100730000010491C6FD03C4928467F31FFF738FF35
:100740000028F1D00BF0FF01284600F034F9012118
:100750002846FFF719FFC8F8009006E0D8F8000017
:10076000401EC8F80000401C55D031462846FFF70F
:100770001FFF0028F2D0012282212E46284600F0D9
:1007800012F94D46C8F8009007E000BFD8F8000005
:10079000401EC8F80000401C3DD039463046FFF7E7
:1007A00007FF0028F2D000213046FFF7B7FE4FF4D4
:1007B00000613046FFF76EFFBAF80000C8F800503D
:1007C000194DED1C07E026E0D8F80000401EC8F8DF
:1007D0000000401C1FD029463046FFF7E9FE0028E4
:1007E000F2D001213046FFF7D9FE304600F0D8F8AC
:1007F00060F30F24304600F0D3F860F307040121C2
:100800003046FFF78BFE4FF2FF713046FFF742FF95
:100810002046BDE8F09FBDE8F05F00F0BDBA0000E3
:10082000005C004000000020010000102DE9F14FA5
:10083000584D01212846FFF7A7FE574C4FF440576B
:10084000564E276004E02068401E2060401C70D097
:1008500031462846FFF7ACFE0028F4D00021284698
:10086000FFF75CFE00228221284600F09CF8B84683
:1008700027604A4F7F1C04E02068401E2060401C17
:1008800057D039462846FFF793FE0028F4D0DFF80A
:10089000049109F11809B9F80000DFF800A1AB468E
:1008A0000AF17F0AC4F8008004E02068401E20603E
:1008B000401C6AD0554651465846FFF779FE00283D
:1008C000F3D05846009900F076F8AA465D46C4F881
:1008D000008004E02068401E2060401C55D0514636
:1008E0002846FFF765FE0028F4D02C492846C91C8D
:1008F000FFF75EFE0028EDD00121AA462846FFF74B
:1009000043FE4546C4F80080B046564604E02068E1
:10091000401E2060401C38D041463046FFF748FE5C
:100920000028F4D001228221304600F03CF82560F6
:1009300005E02AE02068401E2060401C25D0394692
:100940003046FFF735FE0028F4D0B9F800002560E6
:10095000124D3F3504E02068401E2060401C14D03A
:1009600029463046FFF724FE0028F4D00121304606
:10097000FFF714FE304600F013F80446012130461C
:10098000FFF7CCFD2046BDE8F88FBDE8F84F00F03A
:1009900003BA0000005C00400000002001000010CD
:1009A000008AC0B2704712B141F0010101E001F0CC
:1009B000FE0101827047018270470029018802D040
:1009C00041F4004101E0C1F30E01018070470000D5
:1009D0002DE9F05F3F4E8B468246002701213046CD
:1009E000FFF7D2FD3C4C4FF44055DFF8F080256016
:1009F00004E02068401E2060401C66D0414630461E
:100A0000FFF7D6FD0028F4D0002282213046FFF700
:100A1000CAFFDFF8C880256008F1010804E02068FB
:100A2000401E2060401C50D041463046FFF7C0FDBC
:100A30000028F4D0274818300088DFF8A080B1469D
:100A400008F17F08256004E02068401E2060401CFB
:100A50003BD0464641464846FFF7AAFD0028F3D062
:100A600051464846FFF7A7FFC846256004E02068C6
:100A7000401E2060401C28D031464046FFF798FDBC
:100A80000028F4D059464046FFF795FF25604546BB
:100A9000DFF8488008F1030804E02068401E206069
:100AA000401C12D031462846FFF782FD0028F4D0C2
:100AB00041462846FFF77CFD0028EED0012128465C
:100AC000FFF76CFD3846BDE8F09FBDE8F05F00F031
:100AD00063B90000005C004000000020010000102D
:100AE0001FB500F041F8164C2088C00717D1ADF8AB
:100AF0000400ADF808002015ADF80A000001ADF8BB
:100B00000C004BF6FF710F48ADF8061000906946D7
:100B10002046FFF763FD01212046FFF709FD00F0A5
:100B200073F810B1042004B010BD00F08EF801215C
:100B3000084600F009F800F097F80020F3E70000FD
:100B4000005C0040A086010070B504460D460420FC
:100B5000FFF76CFE0DB1A04300E0204301460420E6
:100B6000FFF736FF002070BD7CB50121CC05204683
:100B700000F094FF012140F2051000F06BFF01210D
:100B8000880300F0A3FF0121204600F093FF00211D
:100B9000204600F08FFF124C042208212046FFF768
:100BA000A3FC104D042209212846FFF79DFC0221D9
:100BB000A0158DF8041000908DF8051001208DF817
:100BC000060000208DF8070069462046FFF73BFC31
:100BD0006015009069462846FFF735FC7CBD000093
:100BE000000002400008024070B504460D46172080
:100BF000FFF71CFE0DB1204300E0A0430146172083
:100C0000FFF7E6FE002070BD10B500F011F8A0F56A
:100C10000061113908D00548006808B1012010BDF5
:100C2000BDE8104000F0B8B8002010BD0000002062
:100C300010B50020FFF7FAFD4FF6FF7101EA00241E
:100C40000120FFF7F3FD204310BD10B50221032062
:100C5000FFF7BEFE022001F09DFB00210320FFF7FD
:100C6000B7FE002010BD000010B501210220FFF7E3
:100C70006BFF49212020FFF7ABFE022001F08AFB29
:100C800001212120FFF7A4FE00211E20FFF7ACFF69
:100C90009A214120FFF79CFE01214A20FFF798FE90
:100CA00001214B20FFF794FE00214B20FFF790FE1F
:100CB00001215620FFF78CFE01215820FFF788FE06
:100CC00003214020FFF784FEFF210B20FFF780FE69
:100CD00003480021C180818041800180084610BD09
:100CE0000C00002070B54020FFF7A0FD294D10F04A
:100CF0008000A5F10C0428803AD04D20FFF7D6FCE7
:100D000040F6B831884202DCA0F61E7001E0A0F681
:100D1000D86040420F2190FBF1F0002801DC002058
:100D200002E0F02800DDEF2086B24F20FFF7BEFC86
:100D30000B21A0F5B47090FBF1F0002801DC00203D
:100D400004E0B0F5A07F01DD40F23F10616880B2A1
:100D50008E4201D9721A00E08A1BA168884201D92B
:100D6000411A00E0091A1144052901D9C4E90160BA
:100D7000A08868802089A8805120FFF797FCE88030
:100D800001214B20FFF724FE00214B20FFF720FE1E
:100D9000004870BD0C0000201FB5174C01212046F3
:100DA000FFF7FCFB01212046FFF707FE002120464C
:100DB000FFF703FEFFF7D8FE2046FFF7C3FB002135
:100DC000ADF804104BF6FF70ADF80600ADF8081052
:100DD0002015ADF80A000001ADF80C00074800909E
:100DE00001212046FFF7A4FB69462046FFF7F6FBEA
:100DF00004B0002010BD0000005C0040A08601008F
:100E00001CB501216F2000F025FE534C0E2203215A
:100E10002046FFF769FB0E2204212046FFF764FB02
:100E20000E2206212046FFF75FFB0E220B212046F3
:100E3000FFF75AFB0E220C212046FFF755FB02213B
:100E40008DF805108DF80410002141F658008DF83A
:100E5000061000908DF8071069462046FFF7F3FA58
:100E60003E4C092200212046FFF73EFB09220121CA
:100E70002046FFF739FB0E2208212046FFF734FBFE
:100E80000E2209212046FFF72FFB0E220A212046C1
:100E9000FFF72AFB0E220B212046FFF725FB40F629
:100EA0000370009069462046FFF7CDFA2C4C0E22C5
:100EB00006212046FFF718FB0E2207212046FFF7E8
:100EC00013FB0E220A212046FFF70EFB4FF4986019
:100ED000009069462046FFF7B6FA224C0E22032105
:100EE0002046FFF701FB0E2206212046FFF7FCFA01
:100EF0004820009069462046FFF7A5FA1A4C0E22BA
:100F00000A212046FFF7F0FA201500906946204696
:100F1000FFF799FA154C0E2206212046FFF7E4FA56
:100F20000E2207212046FFF7DFFA09220A21204678
:100F3000FFF7DAFA0E220B212046FFF7D5FA092235
:100F40000C212046FFF7D0FA4FF4E6500090694696
:100F50002046FFF778FA1CBD000002400004024062
:100F600000080240000C0240001402400018024039
:100F7000044A00284FF00401104601D0FFF7C6BA1A
:100F8000FFF7C2BA00080240054A00214FF4A0232F
:100F9000526800BF22F81100491C9942FAD37047E9
:100FA0001400002070B5064600240A4D0AE02022F5
:100FB0002146304600F03AF8E8688088204484B240
:100FC000F02C05D2E8688088011989B28142EED2FE
:100FD00070BD0000140000201CB501210C2000F0A1
:100FE00039FD0420009002208DF8050001208DF8C5
:100FF000040000208DF80600094C8DF807006946B2
:101000002046FFF720FA4FF400500090694605484B
:10101000FFF719FA01220421204600F005F81CBD53
:1010200000080240000C0240FFF772BA064B10B4F1
:10103000DB68203AD2B21C68DB88534304EB4302DE
:1010400010BC00F021B8000014000020F0B50E46DE
:10105000074600240B4D0AE021463846FFF7E6FF1D
:10106000E868761C8088204484B2F02C08D232785C
:10107000002A05D0E8688088011989B28142EBD244
:10108000F0BD0000140000202DE9F0479246002238
:10109000C0EB001045011E480788B0F80290466872
:1010A000C3682FE0002025E04FF00C0CB4FBFCFCE3
:1010B0004FEACC084FF0800C0CFA08FC3AF812808A
:1010C0004CFA00FC1CEA080F01D10C2C08D94FF097
:1010D000010C0CFA00FC18EA0C0F06D10C2C04D9F8
:1010E00006EB410C2CF8059002E006EB4104675337
:1010F000401C491C9C888442D6D8A0B2C0F1F000A4
:101100000144521CD8889042CCD8BDE8F08700003A
:1011100014000020F0B51C4D534200242E880222FA
:10112000D5F8045002EB43020F19A0EB030EC7EBF6
:1011300007170EEB071C25F81C6000EB030C0CEBEB
:10114000071725F817600F1BC7EB07170CEB071CD9
:1011500025F81C600EEB071725F817601746A2420A
:1011600008DC641C07EB4402521CE34202D19F429C
:1011700000DC00279F4203DD5B1C02EB4302521C94
:10118000002BD1DDF0BD0000140000202DE9F84F48
:101190008B46032190460746A1EB480600241546DE
:1011A0004FF6FF7935E09DB1ABEB050081B20090C1
:1011B00009EA4502381B924680B2012300F066F826
:1011C0000098524681B2381980B2012300F05EF8CF
:1011D0009CB1ABEB040081B2009009EA4402781B99
:1011E000924680B2012300F051F80098524681B235
:1011F000781980B2012300F049F8002E03DA06EBDB
:101200008406B61D04E0601B06EB80066D1E0A36E0
:10121000641CAC42C7D9424659463846BDE8F84F2F
:10122000FFF778BF2DE9F0439946174B1446C1EB01
:1012300001111A8800EB011059688BB04FEAD228CF
:1012400002F01F05C2F3451601EB4007FEF7DDFF74
:101250004FF44030009001AA022082E861010F2083
:10126000CDE90507C4F1F0000994CDE90709684606
:10127000FEF7E2FFFFF73AF80220FEF7D3FF00285F
:10128000FAD00BB0BDE8F083140000202DE9F04344
:10129000C1EB011100EB01101A4914468BB04A68EA
:1012A000994602EB40080888C60A00F01F05C0F303
:1012B0004517FEF7AAFF4FF44030009001AA022024
:1012C00082E8A1000F20CDE904600120CDF818804C
:1012D000B9F1000F10D0CDE90840EF210791684621
:1012E000FEF7AAFFFFF702F80220FEF79BFF002897
:1012F000FAD00BB0BDE8F08300210994CDE90710C6
:10130000EDE70000140000202DE9F0411C461546D1
:101310000E46074600232246FFF7B8FF701981B238
:10132000002322463846FFF7B1FF01232A46314603
:101330003846FFF7ABFF38192A463146BDE8F04181
:1013400080B20123FFF7A2BF0148C06870470000C8
:101350001400002000B58FB0FFF73EFE0020FFF71D
:1013600007FE0120FFF704FE00F0DCF900F092F820
:101370000121880600F0AAFB0121C80500F06AFBE4
:10138000FFF73EFD00F03EFD00200290039000902C
:1013900001900C900D900E9004220721C02000F0C7
:1013A0001FFC4FF4003000F00BFC012000F012FC99
:1013B0003D2000F0EBFB0028FAD00920049001202A
:1013C00005901D2006900320079040F20D10089014
:1013D00040F24310099040F217100A9040F2471073
:1013E0000B90684600F082FA0FB000BD30B591B0A6
:1013F0001E20009040F20D1001900420029040F257
:101400004310039002200490FF20059000200690D6
:101410000790089009904FF480600A9005200B9087
:1014200040F2E3100D90C01E0E904FF4A0700F908C
:101430004FF05040144C0C906946204600F0B4FA2E
:1014400012480C904FF4C0600A900F4D0720803571
:101450000B906946284600F0A7FA012000F0F0FA48
:101460000121204600F096FA0121284600F092FA68
:10147000012000F0E5FA0648A0F11001C860012043
:1014800000F026FA11B030BD84680140000005D09C
:101490002400002010B5CA2000F0C2F9C32000F0DB
:1014A000E5F9082000F0E2F9502000F0DFF9CF2044
:1014B00000F0B6F9002000F0D9F9C12000F0D6F90B
:1014C000302000F0D3F9ED2000F0AAF9642000F0FC
:1014D000CDF9032000F0CAF9122000F0C7F98120ED
:1014E00000F0C4F9E82000F09BF9852000F0BEF977
:1014F000002000F0BBF9782000F0B8F9CB2000F014
:101500008FF9392000F0B2F92C2000F0AFF900205B
:1015100000F0ACF9342000F0A9F9022000F0A6F99F
:10152000F72000F07DF9202000F0A0F9EA2000F07B
:1015300077F9002000F09AF9002000F097F9B12027
:1015400000F06EF9002000F091F91B2000F08EF9F8
:10155000B62000F065F90A2000F088F9A22000F01A
:1015600085F9C02000F05CF9102000F07FF9C1205F
:1015700000F056F9102000F079F9C52000F050F97C
:10158000452000F073F9152000F070F9C72000F035
:1015900047F9902000F06AF9362000F041F9C820A0
:1015A00000F064F9F22000F03BF9002000F05EF951
:1015B000B02000F035F9C22000F058F9B62000F054
:1015C0002FF90A2000F052F9A72000F04FF9272048
:1015D00000F04CF9042000F049F92A2000F020F92D
:1015E000002000F043F9002000F040F9002000F056
:1015F0003DF9EF2000F03AF92B2000F011F900201E
:1016000000F034F9002000F031F9012000F02EF94B
:101610003F2000F02BF9F62000F002F9012000F045
:1016200025F9002000F022F9062000F01FF92C20F7
:1016300000F0F6F8C82000F0BBFE262000F0F0F81D
:10164000012000F013F9E02000F0EAF80F2000F08C
:101650000DF9292000F00AF9242000F007F90C20E8
:1016600000F004F90E2000F001F9092000F0FEF866
:101670004E2000F0FBF8782000F0F8F83C2000F055
:10168000F5F8092000F0F2F8132000F0EFF805203B
:1016900000F0ECF8172000F0E9F8112000F0E6F86F
:1016A000002000F0E3F8E12000F0BAF8002000F09C
:1016B000DDF8162000F0DAF81B2000F0D7F804203F
:1016C00000F0D4F8112000F0D1F8072000F0CEF897
:1016D000312000F0CBF8332000F0C8F8422000F0B1
:1016E000C5F8052000F0C2F80C2000F0BFF80A2071
:1016F00000F0BCF8282000F0B9F82F2000F0B6F870
:101700000F2000F0B3F8112000F08AF8C82000F094
:101710004FFE292000F084F8BDE810402C2000F096
:101720007FB8000070B588B00121202000F092F948
:101730000121080500F0CAF98020059001208DF8EC
:10174000190002208DF8180000248DF81A40244D4D
:101750008DF81B0005A92846FEF775FEA815059013
:1017600005A92846FEF76FFE6E1505A928460596C1
:10177000FEF769FE052207212846FEF7B5FE052281
:1017800008212846FEF7B0FE052209212846FEF76B
:10179000ABFE144D284600F0C7FB288840061DD438
:1017A000ADF800404FF48270ADF802001820ADF89B
:1017B0000C000720ADF80440ADF80840ADF810006B
:1017C000ADF80640ADF80A60ADF80E40694628460F
:1017D00000F0F5FB0121284600F09CFB08B070BD2D
:1017E00000140240005001400149C86070470000E9
:1017F00014000020054920B1054848600120886098
:1018000070474FF0504048600020F8E71400002077
:10181000000005D001490880704700001400002036
:1018200010B5044600224FF400510E48FFF7FCFBB0
:101830000020FFF79DFB21460B4C204600F0BDFB2E
:101840000221204600F0B2FB0028F9D0802120467A
:1018500000F0ACFB0028F9D1BDE810400120FFF7F3
:1018600087BB0000000C02400050014010B5044648
:10187000012251030D48FFF7D7FB0020FFF778FB4B
:1018800021460B4C204600F098FB0221204600F038
:101890008DFB0028F9D08021204600F087FB00282E
:1018A000F9D1BDE810400120FFF762BB000C0240F7
:1018B0000050014005490028086802D040F00100AE
:1018C00001E020F001000860704700001868014046
:1018D00005490028086802D040F4803001E020F477
:1018E00080300860704700001868014030B5264914
:1018F0000B68264A13400B60038A1C040B68456979
:101900002B4323430B60091D0B6813400B60038BB3
:101910000C68C5692C4344EA03440C60091D0B683C
:1019200013400B60038C0C68456A2C4344EA034463
:101930000C60091D0B6813400B60028D13040A68CC
:10194000C46A22431A430A60091D0A68104B1A40F0
:101950000A60D0E900231A43D0E9023423431A4332
:101960000B681A430A60416B0B02018E0A04064998
:1019700024310C6804F07F440C600C68806B1A43BF
:10198000044314430C6030BD0868014000F800F0C7
:101990008F88FE0F0029016802D041F0010101E0AB
:1019A00021F001010160704770B58A88436803F433
:1019B000704343600B6843EA024343608A8983684B
:1019C00003F4704383608B6843EA024383600269D7
:1019D00022F0070202610A690261CA6991F82430A3
:1019E00016020A8C84691204002585618C6942EA1A
:1019F0000362344314438461426922F0FF0242616E
:101A00004A694261C26940F207739A43C261D1E9EF
:101A10000A231A43C261826A85620A6B82620A8F54
:101A2000C36A03F0E023C3624B6B43EA0243C36221
:101A3000026B6FF30A020263C96B016370BD0000A1
:101A4000014908607047000024680140FEE77047C4
:101A500070470000044A0029116801D0014300E0EA
:101A6000814311607047000030380240044A002969
:101A7000116801D0014300E081431160704700000C
:101A800010380240044A0029116801D0014300E0E7
:101A9000814311607047000038380240044A002931
:101AA000116801D0014300E08143116070470000DC
:101AB00040380240044A0029116801D0014300E087
:101AC000814311607047000020380240044A002919
:101AD000116801D0014300E08143116070470000AC
:101AE00044380240044A0029116801D0014300E053
:101AF00081431160704700002438024070B5204ACD
:101B00001168204C11F00C0104D06610042903D098
:101B1000082903D004601BE0066019E01849091F7A
:101B20000B68C3F380550B6803F03F0315B1B6FB98
:101B3000F3F301E0B4FBF3F30C680968C4F3881411
:101B40006343C1F30141491C4900B3FBF1F101605A
:101B500011680F2303EA11110B4B5C5C0168E14033
:101B600041601468072505EA94241C5D21FA04F4F9
:101B70008460126805EA52329A5CD140C16070BD3F
:101B8000083802400024F4003400002002460020FF
:101B9000510901290BD002290CD00849096802F02B
:101BA0001F02012393400B4200D0012070470349DC
:101BB0007439F3E70149091FF0E700007438024067
:101BC000034A116821F4403101431160704700005D
:101BD0008C38024001490867704700000000474206
:101BE000800140EA0160024940EA027008607047E3
:101BF000883802401CB501217E20FFF72BFF022010
:101C00008DF804008DF8050000208DF80600774C53
:101C10008DF807000C2205212046FEF765FC0C22FA
:101C200006212046FEF760FC6020009069462046B1
:101C3000FEF709FC6E4C0C2200212046FEF754FCF6
:101C40000120009069462046FEF7FDFB694C0C22FE
:101C500000212046FEF748FC0C2201212046FEF719
:101C600043FC0C2208212046FEF73EFC0C220921F1
:101C70002046FEF739FC0C220A212046FEF734FCF0
:101C80000C220E212046FEF72FFC0C220F212046AD
:101C9000FEF72AFC4CF20370009069462046FEF7DE
:101CA000D2FB554C0C2200212046FEF71DFC0C22D5
:101CB00001212046FEF718FC0C2207212046FEF7E2
:101CC00013FC0C2208212046FEF70EFC0C220921F1
:101CD0002046FEF709FC0C220A212046FEF704FCF0
:101CE0000C220B212046FEF7FFFB0C22114620465A
:101CF000FEF7FAFB0C220D212046FEF7F5FB0C2225
:101D00000E212046FEF7F0FB0C220F212046FEF7A5
:101D1000EBFB4FF68370009069462046FEF793FB7D
:101D2000364C0C2200212046FEF7DEFB0C2201215E
:101D30002046FEF7D9FB0C2202212046FEF7D4FBF9
:101D40000C2203212046FEF7CFFB0C220421204663
:101D5000FEF7CAFB0C2205212046FEF7C5FB0C222C
:101D60000B212046FEF7C0FB0C2211462046FEF751
:101D7000BBFB0C220D212046FEF7B6FB0C220E21E8
:101D80002046FEF7B1FB0C220F212046FEF7ACFBEC
:101D90004FF63F00009069462046FEF754FB184C72
:101DA0000C2200212046FEF79FFB0C220121204639
:101DB000FEF79AFB0C2204212046FEF795FB0C222D
:101DC00005212046FEF790FB0C2208212046FEF755
:101DD0008BFB0C220F212046FEF786FB48F23310C6
:101DE000009069462046FEF72EFB1CBD0004024011
:101DF00000080240000C02400010024000140240A3
:101E00000018024000B593B0FFF7F4FE0121084628
:101E1000FFF738FE0421022007220D91CDE90B02C5
:101E2000CDE90E2010901190012000900020CDE906
:101E3000010110210391402104914FF4C071CDE9BB
:101E400005104FF40061CDE90710880009900BA838
:101E50000A906846FEF780FA00F002F813B000BD61
:101E6000F0B585B0012608240025CDE90064CDE950
:101E7000026520210120FEF742FA0028F9D16846C8
:101E8000FEF758FA0A2022480490401E0490FCD124
:101E9000022003958DE8510020210120FEF72FFA42
:101EA0000028F9D16846FEF745FA03200427039578
:101EB0008DE8910020210120FEF721FA0028F9D1B8
:101EC0006846FEF737FA20210120FEF718FA0028AD
:101ED000F9D16846FEF72EFA40F23120CDE90260D2
:101EE000CDE9007420210120FEF709FA0028F9D17C
:101EF0006846FEF71FFA40F26A50FEF79BFA20216F
:101F00000120FEF7FCF90028F9D105B0F0BD000072
:101F100040420F000029018802D041F0400101E059
:101F200021F04001018070471A4910B5884202D162
:101F30000121841424E01849884202D101210414AB
:101F400004E0164988420AD10121C4132046FFF754
:101F5000B1FD2046BDE810400021FFF7ABBD1049A0
:101F6000884202D1012144140AE00E49884202D17C
:101F700001210C0504E00C4988420AD101214C05DD
:101F80002046FFF7AFFD2046BDE810400021FFF7D7
:101F9000A9BD10BD0030014000380040003C0040A9
:101FA000003401400050014000540140024600202E
:101FB00012890A4200D0012070478181704730B5F4
:101FC00002884C8802F441530A88CD8822438C88C9
:101FD0002C4322430C8922434C8922438C8922437F
:101FE000CC8922431A430280828B22F400628283CE
:101FF000098A018230BD70470CB500202E4901903E
:1020000000900A6842F480320A604FF4A0430A68E4
:1020100002F400320092019A521C0192009A12B905
:10202000019A9A42F3D10A68920306D50120224A06
:102030000090121D2148106000E000901E484030C2
:10204000026842F0805202601D48026842F4404239
:102050000260194A083213681360136843F400439E
:102060001360136843F4A05313600B6843F080734C
:102070000B600B689B01FCD5016841F48031016065
:102080004168C903FCD5016841F400310160416831
:102090008903FCD50B4940F205700860106820F0F8
:1020A00003001060106840F0020010601068C0F378
:1020B00081000228FAD10CBD00380240085A4007BE
:1020C00000700040003C024070470000124810B50C
:1020D000016841F4700101601048016841F001019C
:1020E00001600E4A00210832116002680C4B1A4050
:1020F0000260031D0B4A1A60026822F4802202600B
:1021000006480C300160FFF777FF03494FF000608D
:102110008039086010BD000088ED00E00038024002
:10212000FFFFF6FE1030002470B54FF6FF74204616
:10213000FEF72AFFFEF7D4FC4FF4784510B328468B
:10214000FEF722FF0020FFF765FBFFF7FDF8C088D0
:1021500063A100EB400004EA4000FEF777FFFFF7C1
:10216000F3F8C08863A1C0EBC00080B2FEF76EFF39
:10217000FFF7EAF8C08864A104EAC000BDE8704037
:10218000FEF764BF6548FFF72FFBFFF7DDF8C08857
:1021900063A104EA4010FEF759FFFFF7D5F8C088A5
:1021A00069A100EB001004EA4000FEF74FFF40F287
:1021B0001F50FFF72FFB1E231A46FA210520FFF7B9
:1021C00031F847F6FF70FFF725FB1E231A46FA2168
:1021D0002820FFF727F84FF6E070FFF71BFB1E23C0
:1021E0001A46FA214B20FFF71DF82846FFF712FB8D
:1021F0001E234FF490751A4629460520FFF712F862
:102200001F20FFF707FB1E231A4629462820FFF749
:1022100009F84FF4FC60FFF7FDFA1E231A46294621
:102220004B20FEF7FFFF4FF61F00FFF7F3FA1E23C8
:102230001A4629469120FEF7F5FF0020FFF7EAFA3B
:102240001E231A4629466E20FEF7ECFF3223302269
:102250004FF48771B420FFF757F84548FFF7C4FAE9
:10226000FFF772F8C088432200EB400004EA8000C8
:10227000C321FEF7DBFE0023F022F8211846FFF70A
:1022800005F800232C1FB42221461846FEF7FEFF56
:1022900001234722F8211846FEF7F8FF01234722C1
:1022A000F8212520FEF7F2FF01234722F8214820DC
:1022B000FEF7ECFF01234722F8216B20FEF7E6FF33
:1022C0000123242221468E20FEF7E0FFBDE8704066
:1022D0000023F02240F23F111846FEF7D7BF00005E
:1022E000202020494F45204E4F54204F4B20202086
:1022F0002020200052657365742074686520626F29
:102300006172642020200000616E64207472792064
:10231000616761696E202020202000002C000020D1
:102320002020202020202020202020202020546F2A
:102330007563682050616E656C205061696E742011
:10234000202020200000000020202020202020200D
:102350002020202020204578616D706C6520202091
:1023600020202020202020202020202000000000ED
:1023700024000020FEE702E008C8121F08C1002A5E
:10238000FAD170477047002001E001C1121F002AF6
:10239000FBD1704701B581B00449019848430090D2
:1023A000002801D0401EFAE70CBD0000A086010005
:1023B00001B581B001980090002801D0401EFAE7D5
:1023C0000CBD0000FEF7C6FFFFF710F80120FFF775
:1023D00071FA0120FFF70EFAFFF7A6FE384D00BF95
:1023E000FEF780FC286001880029F9D08188CA1E88
:1023F000F22A07D24088C21EEA2AF1D20322FEF74F
:10240000C5FEEDE7B1F58C7F17D8FA2915D34288C0
:10241000052A04D3232A02D840F21F5034E0282A88
:1024200004D3462A02D847F6FF702DE04B2A04D386
:10243000692A02D84FF6E07026E0B1F59F7FCFD829
:10244000B1F5907F23D34288052A11D3232A02D8DD
:102450004FF4784018E0282A0AD3462A01D81F20D2
:1024600012E04B2A04D3692A02D84FF4FC600BE037
:102470006E2A03D38C2A01D8002005E0912A06D3C6
:10248000AF2A04D84FF61F00FFF7C4F9A8E7B1F54B
:10249000877FA5D34088B428A2D3E628A0D80948CE
:1024A000FFF7A2F95FF00004FEF74EFFC08860431B
:1024B00080B2FEF777FD641CA4B21F2CF4D38FE723
:1024C000440000202C00002000000000000000005C
:1024D00000000000000000000000000000000000FC
:1024E00000000000000000000000000000000000EC
:1024F0000000000000000000000080018001800159
:1025000080018001800180018001800180018001C3
:1025100080018001000000008001800100000000B7
:10252000000000000000000000000000CC00CC0013
:10253000CC00CC00CC00CC0000000000000000006B
:10254000000000000000000000000000000000008B
:10255000000000000000000000000000000000007B
:1025600000000000600C600C600C30063006FE1F9E
:10257000FE1F300638071803FE1FFE1F180318033E
:102580008C018C018C01000000008000E003F80F3A
:102590009C0E8C1C8C188C009800F801E007800EB3
:1025A000801C8C188C189C18B80CF00FE00380006D
:1025B00080000000000000000000000000000E1875
:1025C0001B0C110C11061106110311039B018E0146
:1025D000C038C06C60446044304430441844186CC7
:1025E0000C380000000000000000E001F003380794
:1025F000180618063003F001F000F8009C310E3385
:10260000061E061C061C063FFC73F021000000009D
:102610000000000000000000000000000C000C00A2
:102620000C000C000C000C0000000000000000007A
:10263000000000000000000000000000000000009A
:102640000000000000000000000000020003800104
:10265000C000C0006000600030003000300030007A
:10266000300030003000300060006000C000C0006A
:102670008001000300020000000020006000C00094
:10268000800180010003000300060006000600062A
:10269000000600060006000600030003800180011A
:1026A000C0006000200000000000000000000000EA
:1026B00000000000C000C000D806F807E0013003A9
:1026C00038070000000000000000000000000000CB
:1026D00000000000000000000000000000000000FA
:1026E0000000000080018001800180018001FC3F2A
:1026F000FC3F80018001800180018001000000001A
:1027000000000000000000000000000000000000C9
:1027100000000000000000000000000000000000B9
:1027200000000000000000000000800180010001A6
:102730000001800000000000000000000000000018
:102740000000000000000000000000000000000089
:10275000E007E007000000000000000000000000AB
:102760000000000000000000000000000000000069
:102770000000000000000000000000000000000059
:1027800000000000000000000000C000C0000000C9
:1027900000000000000000000000000C000C00061B
:1027A000000600060003000300038003800180018F
:1027B0008001C000C000C000600060000000000098
:1027C00000000000000000000000E003F007380EE9
:1027D000180C0C180C180C180C180C180C180C18D9
:1027E0000C180C18180C380EF007E003000000005D
:1027F0000000000000000000000000018001C00196
:10280000F001980188018001800180018001800130
:1028100080018001800180018001800100000000B2
:1028200000000000000000000000E003F80F180C9A
:102830000C180C1800180018000C0006000380018A
:10284000C000600030001800FC1FFC1F00000000EA
:1028500000000000000000000000E001F807180E72
:102860000C0C0C0C000C0006C003C007000C001878
:1028700000180C180C18180CF807E00300000000F2
:1028800000000000000000000000000C000E000F1F
:10289000000F800DC00C600C600C300C180C0C0C80
:1028A000FC3FFC3F000C000C000C000C0000000082
:1028B00000000000000000000000F80FF80F1800F2
:1028C00018000C00EC03FC071C0E001C001800187C
:1028D00000180C181C0C180EF807E003000000008C
:1028E00000000000000000000000C007F00F381CCE
:1028F000181818000C00CC03EC0F3C0E1C1C0C1814
:102900000C180C18181C380EF007E003000000002B
:1029100000000000000000000000FC1FFC1F000C75
:1029200000060006000380038001C001C000E00033
:1029300060006000700030003000300000000000D7
:1029400000000000000000000000E003F007380E67
:10295000180C180C180C3806F007F007180C0C1897
:102960000C180C180C18380CF80FE00300000000CD
:1029700000000000000000000000E003F007380E37
:102980001C0C0C180C180C181C1C381EF81BE01919
:102990000018000C000C1C0EF807F00100000000ED
:1029A0000000000000000000000000000000000027
:1029B0000000000080018001000000000000000015
:1029C0000000000000000000800180010000000005
:1029D00000000000000000000000000000000000F7
:1029E00000000000800180010000000000000000E5
:1029F00000000000000000008001800100010001D3
:102A00008000000000000000000000000000000046
:102A100000000000000000000010001C800FE00318
:102A2000F8001800F800E003800F001C0010000000
:102A30000000000000000000000000000000000096
:102A40000000000000000000F81F0000000000006F
:102A5000F81F00000000000000000000000000005F
:102A60000000000000000000000000000000000066
:102A7000000000000000000008003800F001C0075E
:102A8000001F0018001FC007F001380008000000F8
:102A900000000000000000000000E003F80F180C28
:102AA0000C180C180018000C000600038001C00070
:102AB000C000C00000000000C000C0000000000016
:102AC000000000000000000000000000E0071818EF
:102AD0000420C229224A1144094409440944092214
:102AE0001113E20C024004201818E0070000000057
:102AF0000000000000000000000080038003C0060A
:102B0000C006C006600C600C301830183018F83F52
:102B1000F83F1C700C600C6006C006C0000000008E
:102B200000000000000000000000FC03FC0F0C0C83
:102B30000C180C180C180C0CFC07FC0F0C180C30A3
:102B40000C300C300C300C18FC1FFC07000000008F
:102B500000000000000000000000C007F01F38382F
:102B60001C300C7006600600060006000600060019
:102B7000060006600C701C30F01FE007000000002B
:102B800000000000000000000000FE03FE0F060E23
:102B900006180618063006300630063006300630B5
:102BA000063006180618060EFE0FFE030000000091
:102BB00000000000000000000000FC3FFC3F0C0093
:102BC0000C000C000C000C00FC1FFC1F0C000C0087
:102BD0000C000C000C000C00FC3FFC3F000000004F
:102BE00000000000000000000000F83FF83F18005F
:102BF0001800180018001800F81FF81F1800180017
:102C00001800180018001800180018000000000034
:102C100000000000000000000000E00FF83F3C78DA
:102C20000E6006E007C00300030003FE03FE03C0BE
:102C300007C006C00EC03CF0F83FE00F00000000E7
:102C4000000000000000000000000C300C300C30D0
:102C50000C300C300C300C30FC3FFC3F0C300C3096
:102C60000C300C300C300C300C300C3000000000FC
:102C700000000000000000000000800180018001D1
:102C8000800180018001800180018001800180013C
:102C9000800180018001800180018001000000002E
:102CA0000000000000000000000000060006000612
:102CB00000060006000600060006000600060006E4
:102CC0000006180618063807F003E00100000000AF
:102CD0000000000000000000000006300618060C8E
:102CE000060606038601C60066007600DE008E0139
:102CF00006030606060C06180630066000000000F3
:102D0000000000000000000000001800180018007B
:102D100018001800180018001800180018001800F3
:102D20001800180018001800F81FF81F0000000015
:102D3000000000000000000000000EE01EF01EF089
:102D40001EF036D836D836D836D866CC66CC66CCA7
:102D5000C6C6C6C6C6C6C6C686C386C300000000B1
:102D6000000000000000000000000C301C303C306F
:102D70003C306C306C30CC30CC308C310C330C337C
:102D80000C360C360C3C0C3C0C380C3000000000AF
:102D900000000000000000000000E007F81F1C38E1
:102DA0000E70066003C003C003C003C003C003C0AD
:102DB00003C006600E701C38F81FE007000000001A
:102DC00000000000000000000000FC0FFC1F0C3899
:102DD0000C300C300C300C300C18FC1FFC070C00B5
:102DE0000C000C000C000C000C000C00000000009B
:102DF00000000000000000000000E007F81F1C3881
:102E00000E70066003E003C003C003C003C003C02C
:102E100007E006630E3F1C3CF83FE0F700C00000EF
:102E200000000000000000000000FE0FFE1F06383A
:102E30000630063006300638FE1FFE07060306067B
:102E4000060C061806180630063006600000000062
:102E500000000000000000000000E003F80F1C0C60
:102E60000C180C180C001C00F803E00F001E0038B2
:102E7000063006300E301C1CF80FE0070000000082
:102E800000000000000000000000FE7FFE7F8001C7
:102E9000800180018001800180018001800180012A
:102EA000800180018001800180018001000000001C
:102EB000000000000000000000000C300C300C305E
:102EC0000C300C300C300C300C300C300C300C3022
:102ED0000C300C300C301818F81FE0070000000010
:102EE0000000000000000000000003600630063013
:102EF00006300C180C180C18180C180C380E30066C
:102F00003006700760036003C001C00100000000CC
:102F1000000000000000000000000360C361C36106
:102F2000C3616633663366336633663366336C1B60
:102F30006C1B6C1B2C1A3C1E380E380E0000000057
:102F4000000000000000000000000FE00C701830CE
:102F50003018700C600EC00780038003C003E006C9
:102F6000700C301C18180C300E6007E000000000D8
:102F70000000000000000000000003C006600C30EC
:102F80001C383818300C6006E007C003800180014F
:102F9000800180018001800180018001000000002B
:102FA00000000000000000000000FC7FFC7F0060CB
:102FB00000300018000C000600038001C000600013
:102FC000300018000C000600FE7FFE7F00000000AD
:102FD00000000000000000000000E003E0036000CB
:102FE00060006000600060006000600060006000E1
:102FF00060006000600060006000600060006000D1
:103000006000E003E00300000000300030006000DA
:1030100060006000C000C000C000C00180018001ED
:10302000800100030003000300060006000000000A
:1030300000000000000000000000E003E0030003C7
:103040000003000300030003000300030003000368
:103050000003000300030003000300030003000358
:103060000003E003E003000000000000C001C00115
:1030700060036003600330063006180C180C000073
:103080000000000000000000000000000000000040
:103090000000000000000000000000000000000030
:1030A0000000000000000000000000000000000020
:1030B00000000000000000000000FFFFFFFF000014
:1030C000000000000000000000000C000C000C00DC
:1030D0000C000C000C0000000000000000000000CC
:1030E00000000000000000000000000000000000E0
:1030F00000000000000000000000000000000000D0
:1031000000000000F003F8071C0C0C0C000FF00F7F
:10311000F80C0C0C0C0C1C0FF80FF0180000000041
:103120000000000000000000000018001800180057
:1031300018001800D803F80F380C181818181818A9
:10314000181818181818380CF80FD80300000000C9
:10315000000000000000000000000000000000006F
:1031600000000000C003F007300E180C1800180013
:1031700018001800180C300EF007C0030000000003
:1031800000000000000000000000001800180018F7
:1031900000180018C01BF01F301C18181818181839
:1031A000181818181818301CF01FC01B0000000059
:1031B000000000000000000000000000000000000F
:1031C00000000000C003F00F300C1818F81FF81FA3
:1031D000180018003818301CF00FC007000000005D
:1031E00000000000000000000000800FC00FC000C1
:1031F000C000C000F007F007C000C000C000C00061
:10320000C000C000C000C000C000C000000000003E
:1032100000000000000000000000000000000000AE
:1032200000000000E00DF80F180E0C0C0C0C0C0C3C
:103230000C0C0C0C0C0C180EF80FE00D000C0C0C08
:103240001C06F807F0010000000018001800180024
:1032500018001800D807F80F381C18181818181874
:10326000181818181818181818181818000000003E
:1032700000000000000000000000C000C0000000CE
:1032800000000000C000C000C000C000C000C000BE
:10329000C000C000C000C000C000C00000000000AE
:1032A00000000000000000000000C000C00000009E
:1032B00000000000C000C000C000C000C000C0008E
:1032C000C000C000C000C000C000C000C000C000FE
:1032D000C000F8007800000000000C000C000C009A
:1032E0000C000C000C0C0C060C038C01CC006C00C8
:1032F000FC009C018C030C030C060C0C000000006D
:1033000000000000000000000000C000C000C0007D
:10331000C000C000C000C000C000C000C000C000AD
:10332000C000C000C000C000C000C000000000001D
:10333000000000000000000000000000000000008D
:10334000000000007C3CFF7EC7E383C183C183C1D2
:1033500083C183C183C183C183C183C100000000D5
:10336000000000000000000000000000000000005D
:10337000000000009807F80F381C181818181818C3
:10338000181818181818181818181818000000001D
:10339000000000000000000000000000000000002D
:1033A00000000000C003F00F300C1818181818188F
:1033B000181818181818300CF00FC003000000007F
:1033C00000000000000000000000000000000000FD
:1033D00000000000D803F80F380C18181818181837
:1033E000181818181818380CF80FD80318001800F7
:1033F0001800180018000000000000000000000085
:1034000000000000C01BF01F301C181818181818F6
:10341000181818181818301CF01FC01B00180018B6
:103420000018001800180000000000000000000054
:1034300000000000B007F0037000300030003000E2
:10344000300030003000300030003000000000005C
:10345000000000000000000000000000000000006C
:1034600000000000E003F003380E180C3800F003F1
:10347000C007000C180C380EF007E0030000000035
:103480000000000000000000000000008000C000FC
:10349000C000C000F007F007C000C000C000C000BE
:1034A000C000C000C000C000C007800700000000CE
:1034B000000000000000000000000000000000000C
:1034C00000000000181818181818181818181818DC
:1034D000181818181818381CF01FE0190000000000
:1034E00000000000000000000000000000000000DC
:1034F000000000000C18180C180C180C30063006D0
:103500003006600360036003C001C00100000000DA
:1035100000000000000000000000000000000000AB
:1035200000000000C141C141C36163636363636321
:103530003636363636361C1C1C1C1C1C000000009F
:10354000000000000000000000000000000000007B
:10355000000000001C38381C300C6006600360035B
:10356000600360036006300C381C1C38000000004B
:10357000000000000000000000000000000000004B
:10358000000000001830301830187018600C600C03
:10359000E00CC006C0068003800380038001800128
:1035A000C001F000700000000000000000000000FA
:1035B00000000000FC1FFC1F000C0006000380013F
:1035C000C000600030001800FC1FFC1F000000005D
:1035D0000000000000000000000000038001C000A7
:1035E000C000C000C000C000C0006000600030002B
:1035F00060004000C000C000C000C000C000C000AB
:1036000080010003000000000000800180018001B3
:1036100080018001800180018001800180018001A2
:103620008001800180018001800180018001800192
:10363000800180018001000000006000C000C00126
:1036400080018001800180018001000300030006E9
:103650000003000180018001800180018001800160
:10366000C00060000000000000000000000000003A
:103670000000000000000000F010F81F080F00001C
:10368000000000000000000000000000000000003A
:10369000000000000000000000000000000000002A
:1036A000000000000000000040004000400040001A
:1036B0004000400000004000A000A000A00000006A
:1036C0000000000000000000000024002400FE00B4
:1036D0004800FC0048004800380054005000380002
:1036E00014001400540038004400A800A800500042
:1036F00014001A002A0024001000280028001000DE
:1037000074004C004C00300010001000100000004D
:103710000000000000000000080010001000100071
:103720001000100010000800100008000800080039
:103730000800080008001000000000002400180025
:103740003C001800240000000000000010001000E1
:103750007C001000100000000000000000000000CD
:103760000000080008001000000000000000000039
:103770003C0000000000000000000000000000000D
:1037800000000000180018000800080008001000E1
:103790001000200020002000180024002400240035
:1037A0002400240024001800080018002800080045
:1037B0000800080008000800380044000000040069
:1037C0000800100020007C001800240004001800ED
:1037D000040004002400180004000C00140024005D
:1037E00044007E00040004003C002000200038005B
:1037F00004000400240018001800240020003800F1
:1038000024002400240018003C00040008000800E4
:1038100008001000100010001800240024001800F8
:103820002400240024001800180024002400240090
:103830001C0004002400180000000000100000001C
:103840000000100000000000000000000800000060
:103850000000080010000000000000000400180034
:1038600020001800040000000000000000003C00E0
:1038700000003C00000000000000000020001800D4
:1038800004001800200000001800240004000800B4
:1038900010001000000010003C0042009900A5003C
:1038A000A5009D0042003800380044004400440058
:1038B0007C00440044004400780044004400780048
:1038C00044004400440078001C00220042004000F4
:1038D0004000420022001C007000480044004400E8
:1038E00044004400480070007C00400040007C0020
:1038F0004000400040007C003C00200020003800D8
:1039000020002000200020001C0022004200400077
:103910004E00420022001C004400440044007C0091
:103920004400440044004400100010001000100047
:103930001000100010001000040004000400040037
:1039400004002400240018004400480050007000C7
:1039500050004800480044002000200020002000C3
:103960002000200020003C008200C600C600AA0003
:10397000AA00AA00AA00920042006200520052006F
:103980004A004A004600420018002400420042005B
:103990004200420024001800780044004400440023
:1039A000780040004000400018002400420042001F
:1039B000420042002C001A007800440044007800C5
:1039C00050004800440042003800440040003800E5
:1039D00004004400440038007C0010001000100077
:1039E000100010001000100042004200420042008F
:1039F000420042002400180044004400280028002F
:103A000028002800280010009200AA00AA00AA009E
:103A1000AA00AA00AA0044004200240024001800C2
:103A20001800240024004200440028002800100050
:103A300010001000100010007C00040008001000AE
:103A40001000200040007C001C001000100010003E
:103A50001000100010001C001000100008000800EA
:103A600008000800040004001C0004000400040016
:103A70000400040004001C001000280044000000A2
:103A80000000000000000000000000000000000036
:103A900000000000000000002000100010000000E6
:103AA00000000000000000000000000018000400FA
:103AB0001C00240024001C002000200028003400EA
:103AC0002400240034002800000000001800240016
:103AD00020002000240018000400040014002C0022
:103AE000240024002C001400000000001800240012
:103AF0003C002000240018000000180010001000F6
:103B0000180010001000100000001800240024000D
:103B100018000400240018002000200028003400B1
:103B200024002400240024001000000010001000D5
:103B3000100010001000100008000000080008002D
:103B400008000800280010002000200024002800A1
:103B50003000280024002400100010001000100085
:103B6000100010001000100000000000A600DA0095
:103B700092009200920092000000000028003400A1
:103B80002400240024002400000000001800240069
:103B90002400240024001800000028003400240021
:103BA0003800200020002000000014002C00240019
:103BB0001C00040004000400000000002C00300081
:103BC0002000200020002000000000001800240039
:103BD0001000080024001800000010003800100039
:103BE0001000100010001800000000002400240045
:103BF000240024002C0014000000000044004400B5
:103C00002800280028001000000000009200AA00F0
:103C1000AA00AA00AA0044000000000044002800F6
:103C20001000100028004400000028002800280090
:103C30001000100010001000000000003C00040004
:103C40000800100020003C000000080010001000D8
:103C500020001000100008001000100010001000DC
:103C600010001000100010000000100008000800F4
:103C700004000800080010000000000000006000C0
:103C800092000C0000000000FF00FF00FF00FF009A
:103C9000FF00FF00FF00FF00B83C0008000000200C
:103CA0004800000076230008003D0008480000207E
:103CB000000400008623000800300000000000001F
:103CC0000000000000000000000000000000FFFFF6
:103CD000000000D00000000000000000C824000820
:103CE00010001800983600080800080000000000C6
:103CF0000102030401020304060708090000000092
:04000005080001AD41
:00000001FF
